{
  "_format": "hh-sol-artifact-1",
  "contractName": "OwnableToken",
  "sourceName": "contracts/OwnableToken.sol",
  "abi": [
    {
      "inputs": [],
      "stateMutability": "nonpayable",
      "type": "constructor"
    },
    {
      "anonymous": false,
      "inputs": [
        {
          "indexed": true,
          "internalType": "address",
          "name": "owner",
          "type": "address"
        },
        {
          "indexed": true,
          "internalType": "address",
          "name": "spender",
          "type": "address"
        },
        {
          "indexed": false,
          "internalType": "uint256",
          "name": "value",
          "type": "uint256"
        }
      ],
      "name": "Approval",
      "type": "event"
    },
    {
      "anonymous": false,
      "inputs": [
        {
          "indexed": true,
          "internalType": "bytes",
          "name": "abiBytes",
          "type": "bytes"
        }
      ],
      "name": "Initialized",
      "type": "event"
    },
    {
      "anonymous": false,
      "inputs": [
        {
          "indexed": true,
          "internalType": "address",
          "name": "from",
          "type": "address"
        },
        {
          "indexed": true,
          "internalType": "address",
          "name": "to",
          "type": "address"
        },
        {
          "indexed": false,
          "internalType": "uint256",
          "name": "value",
          "type": "uint256"
        }
      ],
      "name": "Transfer",
      "type": "event"
    },
    {
      "inputs": [
        {
          "internalType": "address",
          "name": "owner",
          "type": "address"
        },
        {
          "internalType": "address",
          "name": "spender",
          "type": "address"
        }
      ],
      "name": "allowance",
      "outputs": [
        {
          "internalType": "uint256",
          "name": "",
          "type": "uint256"
        }
      ],
      "stateMutability": "view",
      "type": "function"
    },
    {
      "inputs": [
        {
          "internalType": "address",
          "name": "spender",
          "type": "address"
        },
        {
          "internalType": "uint256",
          "name": "amount",
          "type": "uint256"
        }
      ],
      "name": "approve",
      "outputs": [
        {
          "internalType": "bool",
          "name": "",
          "type": "bool"
        }
      ],
      "stateMutability": "nonpayable",
      "type": "function"
    },
    {
      "inputs": [
        {
          "internalType": "address",
          "name": "account",
          "type": "address"
        }
      ],
      "name": "balanceOf",
      "outputs": [
        {
          "internalType": "uint256",
          "name": "",
          "type": "uint256"
        }
      ],
      "stateMutability": "view",
      "type": "function"
    },
    {
      "inputs": [],
      "name": "decimals",
      "outputs": [
        {
          "internalType": "uint8",
          "name": "",
          "type": "uint8"
        }
      ],
      "stateMutability": "view",
      "type": "function"
    },
    {
      "inputs": [
        {
          "internalType": "address",
          "name": "spender",
          "type": "address"
        },
        {
          "internalType": "uint256",
          "name": "subtractedValue",
          "type": "uint256"
        }
      ],
      "name": "decreaseAllowance",
      "outputs": [
        {
          "internalType": "bool",
          "name": "",
          "type": "bool"
        }
      ],
      "stateMutability": "nonpayable",
      "type": "function"
    },
    {
      "inputs": [],
      "name": "factory",
      "outputs": [
        {
          "internalType": "address",
          "name": "",
          "type": "address"
        }
      ],
      "stateMutability": "view",
      "type": "function"
    },
    {
      "inputs": [
        {
          "internalType": "address",
          "name": "spender",
          "type": "address"
        },
        {
          "internalType": "uint256",
          "name": "addedValue",
          "type": "uint256"
        }
      ],
      "name": "increaseAllowance",
      "outputs": [
        {
          "internalType": "bool",
          "name": "",
          "type": "bool"
        }
      ],
      "stateMutability": "nonpayable",
      "type": "function"
    },
    {
      "inputs": [
        {
          "internalType": "bytes",
          "name": "abiBytes",
          "type": "bytes"
        }
      ],
      "name": "initialize",
      "outputs": [
        {
          "internalType": "bool",
          "name": "",
          "type": "bool"
        }
      ],
      "stateMutability": "nonpayable",
      "type": "function"
    },
    {
      "inputs": [],
      "name": "name",
      "outputs": [
        {
          "internalType": "string",
          "name": "",
          "type": "string"
        }
      ],
      "stateMutability": "view",
      "type": "function"
    },
    {
      "inputs": [],
      "name": "owner",
      "outputs": [
        {
          "internalType": "address",
          "name": "",
          "type": "address"
        }
      ],
      "stateMutability": "view",
      "type": "function"
    },
    {
      "inputs": [],
      "name": "symbol",
      "outputs": [
        {
          "internalType": "string",
          "name": "",
          "type": "string"
        }
      ],
      "stateMutability": "view",
      "type": "function"
    },
    {
      "inputs": [],
      "name": "totalSupply",
      "outputs": [
        {
          "internalType": "uint256",
          "name": "",
          "type": "uint256"
        }
      ],
      "stateMutability": "view",
      "type": "function"
    },
    {
      "inputs": [
        {
          "internalType": "address",
          "name": "recipient",
          "type": "address"
        },
        {
          "internalType": "uint256",
          "name": "amount",
          "type": "uint256"
        }
      ],
      "name": "transfer",
      "outputs": [
        {
          "internalType": "bool",
          "name": "",
          "type": "bool"
        }
      ],
      "stateMutability": "nonpayable",
      "type": "function"
    },
    {
      "inputs": [
        {
          "internalType": "address",
          "name": "sender",
          "type": "address"
        },
        {
          "internalType": "address",
          "name": "recipient",
          "type": "address"
        },
        {
          "internalType": "uint256",
          "name": "amount",
          "type": "uint256"
        }
      ],
      "name": "transferFrom",
      "outputs": [
        {
          "internalType": "bool",
          "name": "",
          "type": "bool"
        }
      ],
      "stateMutability": "nonpayable",
      "type": "function"
    }
  ],
  "bytecode": "0x60806040526000600560006101000a81548160ff0219169083151502179055503480156200002c57600080fd5b506040518060400160405280600181526020017f2d000000000000000000000000000000000000000000000000000000000000008152506040518060400160405280600181526020017f2d000000000000000000000000000000000000000000000000000000000000008152508160039080519060200190620000b1929190620000d3565b508060049080519060200190620000ca929190620000d3565b505050620001e8565b828054620000e19062000183565b90600052602060002090601f01602090048101928262000105576000855562000151565b82601f106200012057805160ff191683800117855562000151565b8280016001018555821562000151579182015b828111156200015057825182559160200191906001019062000133565b5b50905062000160919062000164565b5090565b5b808211156200017f57600081600090555060010162000165565b5090565b600060028204905060018216806200019c57607f821691505b60208210811415620001b357620001b2620001b9565b5b50919050565b7f4e487b7100000000000000000000000000000000000000000000000000000000600052602260045260246000fd5b61213b80620001f86000396000f3fe608060405234801561001057600080fd5b50600436106100ea5760003560e01c806370a082311161008c578063a457c2d711610066578063a457c2d714610275578063a9059cbb146102a5578063c45a0155146102d5578063dd62ed3e146102f3576100ea565b806370a08231146102095780638da5cb5b1461023957806395d89b4114610257576100ea565b806323b872dd116100c857806323b872dd1461015b578063313ce5671461018b57806339509351146101a9578063439fab91146101d9576100ea565b806306fdde03146100ef578063095ea7b31461010d57806318160ddd1461013d575b600080fd5b6100f7610323565b60405161010491906117de565b60405180910390f35b610127600480360381019061012291906113ce565b6103b5565b60405161013491906117c3565b60405180910390f35b61014561048c565b60405161015291906119e0565b60405180910390f35b6101756004803603810190610170919061137f565b610496565b60405161018291906117c3565b60405180910390f35b610193610597565b6040516101a091906119fb565b60405180910390f35b6101c360048036038101906101be91906113ce565b6105a0565b6040516101d091906117c3565b60405180910390f35b6101f360048036038101906101ee919061140a565b61064c565b60405161020091906117c3565b60405180910390f35b610223600480360381019061021e919061131a565b6108f7565b60405161023091906119e0565b60405180910390f35b61024161093f565b60405161024e91906117a8565b60405180910390f35b61025f610965565b60405161026c91906117de565b60405180910390f35b61028f600480360381019061028a91906113ce565b6109f7565b60405161029c91906117c3565b60405180910390f35b6102bf60048036038101906102ba91906113ce565b610aeb565b6040516102cc91906117c3565b60405180910390f35b6102dd610b09565b6040516102ea91906117a8565b60405180910390f35b61030d60048036038101906103089190611343565b610b21565b60405161031a91906119e0565b60405180910390f35b60606003805461033290611c02565b80601f016020809104026020016040519081016040528092919081815260200182805461035e90611c02565b80156103ab5780601f10610380576101008083540402835291602001916103ab565b820191906000526020600020905b81548152906001019060200180831161038e57829003601f168201915b5050505050905090565b60008273ffffffffffffffffffffffffffffffffffffffff166103d6610ba8565b73ffffffffffffffffffffffffffffffffffffffff16141561042d576040517f08c379a000000000000000000000000000000000000000000000000000000000815260040161042490611860565b60405180910390fd5b60008211610470576040517f08c379a0000000000000000000000000000000000000000000000000000000008152600401610467906118c0565b60405180910390fd5b61048261047b610ba8565b8484610bb0565b6001905092915050565b6000600254905090565b60006104a3848484610d7b565b6000600160008673ffffffffffffffffffffffffffffffffffffffff1673ffffffffffffffffffffffffffffffffffffffff16815260200190815260200160002060006104ee610ba8565b73ffffffffffffffffffffffffffffffffffffffff1673ffffffffffffffffffffffffffffffffffffffff1681526020019081526020016000205490508281101561056e576040517f08c379a0000000000000000000000000000000000000000000000000000000008152600401610565906118e0565b60405180910390fd5b61058b8561057a610ba8565b85846105869190611b25565b610bb0565b60019150509392505050565b60006012905090565b60006106426105ad610ba8565b8484600160006105bb610ba8565b73ffffffffffffffffffffffffffffffffffffffff1673ffffffffffffffffffffffffffffffffffffffff16815260200190815260200160002060008873ffffffffffffffffffffffffffffffffffffffff1673ffffffffffffffffffffffffffffffffffffffff1681526020019081526020016000205461063d9190611acf565b610bb0565b6001905092915050565b6000600560009054906101000a900460ff161561069e576040517f08c379a000000000000000000000000000000000000000000000000000000000815260040161069590611920565b60405180910390fd5b735fbdb2315678afecb367f032d93f642f64180aa373ffffffffffffffffffffffffffffffffffffffff163373ffffffffffffffffffffffffffffffffffffffff1614610720576040517f08c379a000000000000000000000000000000000000000000000000000000000815260040161071790611820565b60405180910390fd5b6000806000808580602001905181019061073a919061144b565b93509350935093506000835111610786576040517f08c379a000000000000000000000000000000000000000000000000000000000815260040161077d906118a0565b60405180910390fd5b60008251116107ca576040517f08c379a00000000000000000000000000000000000000000000000000000000081526004016107c190611980565b60405180910390fd5b6000841161080d576040517f08c379a0000000000000000000000000000000000000000000000000000000008152600401610804906119a0565b60405180910390fd5b8260079080519060200190610823929190611153565b50816008908051906020019061083a929190611153565b508360068190555080600960006101000a81548173ffffffffffffffffffffffffffffffffffffffff021916908373ffffffffffffffffffffffffffffffffffffffff16021790555061088d8185610ffa565b8560405161089b9190611791565b60405180910390207f5e399709a9ff1709f6f6be7268c8e5c3eeaa9da9cd9797e78f07ef287c3717fe60405160405180910390a26001600560006101000a81548160ff0219169083151502179055506001945050505050919050565b60008060008373ffffffffffffffffffffffffffffffffffffffff1673ffffffffffffffffffffffffffffffffffffffff168152602001908152602001600020549050919050565b600960009054906101000a900473ffffffffffffffffffffffffffffffffffffffff1681565b60606004805461097490611c02565b80601f01602080910402602001604051908101604052809291908181526020018280546109a090611c02565b80156109ed5780601f106109c2576101008083540402835291602001916109ed565b820191906000526020600020905b8154815290600101906020018083116109d057829003601f168201915b5050505050905090565b60008060016000610a06610ba8565b73ffffffffffffffffffffffffffffffffffffffff1673ffffffffffffffffffffffffffffffffffffffff16815260200190815260200160002060008573ffffffffffffffffffffffffffffffffffffffff1673ffffffffffffffffffffffffffffffffffffffff16815260200190815260200160002054905082811015610ac3576040517f08c379a0000000000000000000000000000000000000000000000000000000008152600401610aba90611960565b60405180910390fd5b610ae0610ace610ba8565b858584610adb9190611b25565b610bb0565b600191505092915050565b6000610aff610af8610ba8565b8484610d7b565b6001905092915050565b735fbdb2315678afecb367f032d93f642f64180aa381565b6000600160008473ffffffffffffffffffffffffffffffffffffffff1673ffffffffffffffffffffffffffffffffffffffff16815260200190815260200160002060008373ffffffffffffffffffffffffffffffffffffffff1673ffffffffffffffffffffffffffffffffffffffff16815260200190815260200160002054905092915050565b600033905090565b600073ffffffffffffffffffffffffffffffffffffffff168373ffffffffffffffffffffffffffffffffffffffff161415610c20576040517f08c379a0000000000000000000000000000000000000000000000000000000008152600401610c1790611940565b60405180910390fd5b600073ffffffffffffffffffffffffffffffffffffffff168273ffffffffffffffffffffffffffffffffffffffff161415610c90576040517f08c379a0000000000000000000000000000000000000000000000000000000008152600401610c8790611840565b60405180910390fd5b80600160008573ffffffffffffffffffffffffffffffffffffffff1673ffffffffffffffffffffffffffffffffffffffff16815260200190815260200160002060008473ffffffffffffffffffffffffffffffffffffffff1673ffffffffffffffffffffffffffffffffffffffff168152602001908152602001600020819055508173ffffffffffffffffffffffffffffffffffffffff168373ffffffffffffffffffffffffffffffffffffffff167f8c5be1e5ebec7d5bd14f71427d1e84f3dd0314c0f7b2291e5b200ac8c7c3b92583604051610d6e91906119e0565b60405180910390a3505050565b600073ffffffffffffffffffffffffffffffffffffffff168373ffffffffffffffffffffffffffffffffffffffff161415610deb576040517f08c379a0000000000000000000000000000000000000000000000000000000008152600401610de290611900565b60405180910390fd5b600073ffffffffffffffffffffffffffffffffffffffff168273ffffffffffffffffffffffffffffffffffffffff161415610e5b576040517f08c379a0000000000000000000000000000000000000000000000000000000008152600401610e5290611800565b60405180910390fd5b610e6683838361114e565b60008060008573ffffffffffffffffffffffffffffffffffffffff1673ffffffffffffffffffffffffffffffffffffffff16815260200190815260200160002054905081811015610eec576040517f08c379a0000000000000000000000000000000000000000000000000000000008152600401610ee390611880565b60405180910390fd5b8181610ef89190611b25565b6000808673ffffffffffffffffffffffffffffffffffffffff1673ffffffffffffffffffffffffffffffffffffffff16815260200190815260200160002081905550816000808573ffffffffffffffffffffffffffffffffffffffff1673ffffffffffffffffffffffffffffffffffffffff1681526020019081526020016000206000828254610f889190611acf565b925050819055508273ffffffffffffffffffffffffffffffffffffffff168473ffffffffffffffffffffffffffffffffffffffff167fddf252ad1be2c89b69c2b068fc378daa952ba7f163c4a11628f55a4df523b3ef84604051610fec91906119e0565b60405180910390a350505050565b600073ffffffffffffffffffffffffffffffffffffffff168273ffffffffffffffffffffffffffffffffffffffff16141561106a576040517f08c379a0000000000000000000000000000000000000000000000000000000008152600401611061906119c0565b60405180910390fd5b6110766000838361114e565b80600260008282546110889190611acf565b92505081905550806000808473ffffffffffffffffffffffffffffffffffffffff1673ffffffffffffffffffffffffffffffffffffffff16815260200190815260200160002060008282546110dd9190611acf565b925050819055508173ffffffffffffffffffffffffffffffffffffffff16600073ffffffffffffffffffffffffffffffffffffffff167fddf252ad1be2c89b69c2b068fc378daa952ba7f163c4a11628f55a4df523b3ef8360405161114291906119e0565b60405180910390a35050565b505050565b82805461115f90611c02565b90600052602060002090601f01602090048101928261118157600085556111c8565b82601f1061119a57805160ff19168380011785556111c8565b828001600101855582156111c8579182015b828111156111c75782518255916020019190600101906111ac565b5b5090506111d591906111d9565b5090565b5b808211156111f25760008160009055506001016111da565b5090565b600061120961120484611a3b565b611a16565b90508281526020810184848401111561122157600080fd5b61122c848285611bc0565b509392505050565b600061124761124284611a6c565b611a16565b90508281526020810184848401111561125f57600080fd5b61126a848285611bcf565b509392505050565b600081359050611281816120c0565b92915050565b600081519050611296816120d7565b92915050565b600082601f8301126112ad57600080fd5b81356112bd8482602086016111f6565b91505092915050565b600082601f8301126112d757600080fd5b81516112e7848260208601611234565b91505092915050565b6000813590506112ff816120ee565b92915050565b600081519050611314816120ee565b92915050565b60006020828403121561132c57600080fd5b600061133a84828501611272565b91505092915050565b6000806040838503121561135657600080fd5b600061136485828601611272565b925050602061137585828601611272565b9150509250929050565b60008060006060848603121561139457600080fd5b60006113a286828701611272565b93505060206113b386828701611272565b92505060406113c4868287016112f0565b9150509250925092565b600080604083850312156113e157600080fd5b60006113ef85828601611272565b9250506020611400858286016112f0565b9150509250929050565b60006020828403121561141c57600080fd5b600082013567ffffffffffffffff81111561143657600080fd5b6114428482850161129c565b91505092915050565b6000806000806080858703121561146157600080fd5b600061146f87828801611305565b945050602085015167ffffffffffffffff81111561148c57600080fd5b611498878288016112c6565b935050604085015167ffffffffffffffff8111156114b557600080fd5b6114c1878288016112c6565b92505060606114d287828801611287565b91505092959194509250565b6114e781611b59565b82525050565b6114f681611b7d565b82525050565b600061150782611a9d565b6115118185611ab3565b9350611521818560208601611bcf565b80840191505092915050565b600061153882611aa8565b6115428185611abe565b9350611552818560208601611bcf565b61155b81611cf2565b840191505092915050565b6000611573602383611abe565b915061157e82611d03565b604082019050919050565b6000611596601883611abe565b91506115a182611d52565b602082019050919050565b60006115b9602283611abe565b91506115c482611d7b565b604082019050919050565b60006115dc602983611abe565b91506115e782611dca565b604082019050919050565b60006115ff602683611abe565b915061160a82611e19565b604082019050919050565b6000611622600d83611abe565b915061162d82611e68565b602082019050919050565b6000611645600f83611abe565b915061165082611e91565b602082019050919050565b6000611668602883611abe565b915061167382611eba565b604082019050919050565b600061168b602583611abe565b915061169682611f09565b604082019050919050565b60006116ae602a83611abe565b91506116b982611f58565b604082019050919050565b60006116d1602483611abe565b91506116dc82611fa7565b604082019050919050565b60006116f4602583611abe565b91506116ff82611ff6565b604082019050919050565b6000611717600f83611abe565b915061172282612045565b602082019050919050565b600061173a601583611abe565b91506117458261206e565b602082019050919050565b600061175d601f83611abe565b915061176882612097565b602082019050919050565b61177c81611ba9565b82525050565b61178b81611bb3565b82525050565b600061179d82846114fc565b915081905092915050565b60006020820190506117bd60008301846114de565b92915050565b60006020820190506117d860008301846114ed565b92915050565b600060208201905081810360008301526117f8818461152d565b905092915050565b6000602082019050818103600083015261181981611566565b9050919050565b6000602082019050818103600083015261183981611589565b9050919050565b60006020820190508181036000830152611859816115ac565b9050919050565b60006020820190508181036000830152611879816115cf565b9050919050565b60006020820190508181036000830152611899816115f2565b9050919050565b600060208201905081810360008301526118b981611615565b9050919050565b600060208201905081810360008301526118d981611638565b9050919050565b600060208201905081810360008301526118f98161165b565b9050919050565b600060208201905081810360008301526119198161167e565b9050919050565b60006020820190508181036000830152611939816116a1565b9050919050565b60006020820190508181036000830152611959816116c4565b9050919050565b60006020820190508181036000830152611979816116e7565b9050919050565b600060208201905081810360008301526119998161170a565b9050919050565b600060208201905081810360008301526119b98161172d565b9050919050565b600060208201905081810360008301526119d981611750565b9050919050565b60006020820190506119f56000830184611773565b92915050565b6000602082019050611a106000830184611782565b92915050565b6000611a20611a31565b9050611a2c8282611c34565b919050565b6000604051905090565b600067ffffffffffffffff821115611a5657611a55611cc3565b5b611a5f82611cf2565b9050602081019050919050565b600067ffffffffffffffff821115611a8757611a86611cc3565b5b611a9082611cf2565b9050602081019050919050565b600081519050919050565b600081519050919050565b600081905092915050565b600082825260208201905092915050565b6000611ada82611ba9565b9150611ae583611ba9565b9250827fffffffffffffffffffffffffffffffffffffffffffffffffffffffffffffffff03821115611b1a57611b19611c65565b5b828201905092915050565b6000611b3082611ba9565b9150611b3b83611ba9565b925082821015611b4e57611b4d611c65565b5b828203905092915050565b6000611b6482611b89565b9050919050565b6000611b7682611b89565b9050919050565b60008115159050919050565b600073ffffffffffffffffffffffffffffffffffffffff82169050919050565b6000819050919050565b600060ff82169050919050565b82818337600083830152505050565b60005b83811015611bed578082015181840152602081019050611bd2565b83811115611bfc576000848401525b50505050565b60006002820490506001821680611c1a57607f821691505b60208210811415611c2e57611c2d611c94565b5b50919050565b611c3d82611cf2565b810181811067ffffffffffffffff82111715611c5c57611c5b611cc3565b5b80604052505050565b7f4e487b7100000000000000000000000000000000000000000000000000000000600052601160045260246000fd5b7f4e487b7100000000000000000000000000000000000000000000000000000000600052602260045260246000fd5b7f4e487b7100000000000000000000000000000000000000000000000000000000600052604160045260246000fd5b6000601f19601f8301169050919050565b7f45524332303a207472616e7366657220746f20746865207a65726f206164647260008201527f6573730000000000000000000000000000000000000000000000000000000000602082015250565b7f596f7520617265206e6f742074686520466163746f72792e0000000000000000600082015250565b7f45524332303a20617070726f766520746f20746865207a65726f20616464726560008201527f7373000000000000000000000000000000000000000000000000000000000000602082015250565b7f73656e64657220616e64207370656e6465722073686f756c646e27742062652060008201527f7468652073616d652e0000000000000000000000000000000000000000000000602082015250565b7f45524332303a207472616e7366657220616d6f756e742065786365656473206260008201527f616c616e63650000000000000000000000000000000000000000000000000000602082015250565b7f6e616d6520697320656d70747900000000000000000000000000000000000000600082015250565b7f416d6f756e74206973207a65726f2e0000000000000000000000000000000000600082015250565b7f45524332303a207472616e7366657220616d6f756e742065786365656473206160008201527f6c6c6f77616e6365000000000000000000000000000000000000000000000000602082015250565b7f45524332303a207472616e736665722066726f6d20746865207a65726f20616460008201527f6472657373000000000000000000000000000000000000000000000000000000602082015250565b7f5468697320636f6e74726163742068617320616c7265616479206265656e206960008201527f6e697469616c697a656400000000000000000000000000000000000000000000602082015250565b7f45524332303a20617070726f76652066726f6d20746865207a65726f2061646460008201527f7265737300000000000000000000000000000000000000000000000000000000602082015250565b7f45524332303a2064656372656173656420616c6c6f77616e63652062656c6f7760008201527f207a65726f000000000000000000000000000000000000000000000000000000602082015250565b7f73796d626f6c20697320656d7074790000000000000000000000000000000000600082015250565b7f696e697469616c537570706c79206973207a65726f0000000000000000000000600082015250565b7f45524332303a206d696e7420746f20746865207a65726f206164647265737300600082015250565b6120c981611b59565b81146120d457600080fd5b50565b6120e081611b6b565b81146120eb57600080fd5b50565b6120f781611ba9565b811461210257600080fd5b5056fea2646970667358221220085a16ff81bbed99e23ce2fc0698d5abeb7175698b2a884ce24f3ef7dc8420ba64736f6c63430008030033",
  "linkReferences": {},
  "deployedLinkReferences": {}
}