{
  "_format": "hh-sol-artifact-1",
  "contractName": "PriceFeed",
  "sourceName": "contracts/PriceFeed.sol",
  "abi": [
    {
      "inputs": [],
      "name": "fetchPrice",
      "outputs": [
        {
          "internalType": "uint256",
          "name": "jpyPerUSD",
          "type": "uint256"
        },
        {
          "internalType": "uint256",
          "name": "ethPerUSD",
          "type": "uint256"
        }
      ],
      "stateMutability": "pure",
      "type": "function"
    }
  ],
  "bytecode": "0x608060405234801561001057600080fd5b5060cf8061001f6000396000f3fe6080604052348015600f57600080fd5b506004361060285760003560e01c80630fdb11cf14602d575b600080fd5b60336048565b604051603f929190606a565b60405180910390f35b6000806064915066016bcc41e9000090509091565b606481608f565b82525050565b6000604082019050607d6000830185605d565b60886020830184605d565b9392505050565b600081905091905056fea26469706673582212206b37944a9a81cced3b117d337c6d6eb411355f470fba2140dabdf9c8145ddc8564736f6c63430008030033",
  "linkReferences": {},
  "deployedLinkReferences": {}
}