{
  "_format": "hh-sol-artifact-1",
  "contractName": "PriceFeed",
  "sourceName": "contracts/PriceFeed.sol",
  "abi": [
    {
      "inputs": [],
      "name": "fetchPrice",
      "outputs": [
        {
          "internalType": "uint256",
          "name": "jpyPerETH",
          "type": "uint256"
        }
      ],
      "stateMutability": "pure",
      "type": "function"
    }
  ],
  "bytecode": "0x608060405234801561001057600080fd5b5060b78061001f6000396000f3fe6080604052348015600f57600080fd5b506004361060285760003560e01c80630fdb11cf14602d575b600080fd5b60336047565b604051603e9190605e565b60405180910390f35b6000612b67905090565b6058816077565b82525050565b6000602082019050607160008301846051565b92915050565b600081905091905056fea2646970667358221220e2042e13b59044fefea0fa06472f0515e5098f204adfaae1cacf9c0e44e8c0bb64736f6c63430008030033",
  "linkReferences": {},
  "deployedLinkReferences": {}
}