{
  "_format": "hh-sol-artifact-1",
  "contractName": "Yamato",
  "sourceName": "contracts/Yamato.sol",
  "abi": [
    {
      "inputs": [
        {
          "internalType": "address",
          "name": "_pool",
          "type": "address"
        },
        {
          "internalType": "address",
          "name": "_feed",
          "type": "address"
        },
        {
          "internalType": "address",
          "name": "_ymt",
          "type": "address"
        },
        {
          "internalType": "address",
          "name": "_cjpy",
          "type": "address"
        }
      ],
      "stateMutability": "nonpayable",
      "type": "constructor"
    },
    {
      "inputs": [],
      "name": "DCRR",
      "outputs": [
        {
          "internalType": "uint8",
          "name": "",
          "type": "uint8"
        }
      ],
      "stateMutability": "view",
      "type": "function"
    },
    {
      "inputs": [],
      "name": "FR",
      "outputs": [
        {
          "internalType": "uint8",
          "name": "",
          "type": "uint8"
        }
      ],
      "stateMutability": "view",
      "type": "function"
    },
    {
      "inputs": [],
      "name": "GRR",
      "outputs": [
        {
          "internalType": "uint8",
          "name": "",
          "type": "uint8"
        }
      ],
      "stateMutability": "view",
      "type": "function"
    },
    {
      "inputs": [],
      "name": "MCR",
      "outputs": [
        {
          "internalType": "uint8",
          "name": "",
          "type": "uint8"
        }
      ],
      "stateMutability": "view",
      "type": "function"
    },
    {
      "inputs": [],
      "name": "RRR",
      "outputs": [
        {
          "internalType": "uint8",
          "name": "",
          "type": "uint8"
        }
      ],
      "stateMutability": "view",
      "type": "function"
    },
    {
      "inputs": [
        {
          "internalType": "uint256",
          "name": "collInCjpy",
          "type": "uint256"
        },
        {
          "internalType": "uint256",
          "name": "debt",
          "type": "uint256"
        }
      ],
      "name": "getICR",
      "outputs": [
        {
          "internalType": "uint256",
          "name": "ICR",
          "type": "uint256"
        }
      ],
      "stateMutability": "view",
      "type": "function"
    },
    {
      "inputs": [
        {
          "internalType": "uint256",
          "name": "jpyPerEth",
          "type": "uint256"
        }
      ],
      "name": "getTCR",
      "outputs": [
        {
          "internalType": "uint256",
          "name": "TCR",
          "type": "uint256"
        }
      ],
      "stateMutability": "view",
      "type": "function"
    },
    {
      "inputs": [
        {
          "internalType": "uint256",
          "name": "issueAmountInCjpy",
          "type": "uint256"
        }
      ],
      "name": "issue",
      "outputs": [],
      "stateMutability": "payable",
      "type": "function"
    },
    {
      "inputs": [
        {
          "internalType": "address",
          "name": "",
          "type": "address"
        }
      ],
      "name": "issueLocks",
      "outputs": [
        {
          "internalType": "bool",
          "name": "",
          "type": "bool"
        }
      ],
      "stateMutability": "view",
      "type": "function"
    },
    {
      "inputs": [
        {
          "internalType": "address",
          "name": "",
          "type": "address"
        }
      ],
      "name": "pledges",
      "outputs": [
        {
          "internalType": "uint256",
          "name": "coll",
          "type": "uint256"
        },
        {
          "internalType": "uint256",
          "name": "debt",
          "type": "uint256"
        },
        {
          "internalType": "bool",
          "name": "isCreated",
          "type": "bool"
        }
      ],
      "stateMutability": "view",
      "type": "function"
    },
    {
      "inputs": [
        {
          "internalType": "uint256",
          "name": "",
          "type": "uint256"
        }
      ],
      "name": "pledgesIndices",
      "outputs": [
        {
          "internalType": "address",
          "name": "",
          "type": "address"
        }
      ],
      "stateMutability": "view",
      "type": "function"
    },
    {
      "inputs": [
        {
          "internalType": "uint256",
          "name": "maxRedemptionCjpyAmount",
          "type": "uint256"
        },
        {
          "internalType": "bool",
          "name": "isCoreRedemption",
          "type": "bool"
        }
      ],
      "name": "redeem",
      "outputs": [],
      "stateMutability": "nonpayable",
      "type": "function"
    },
    {
      "inputs": [
        {
          "internalType": "uint256",
          "name": "cjpyAmount",
          "type": "uint256"
        }
      ],
      "name": "repay",
      "outputs": [],
      "stateMutability": "nonpayable",
      "type": "function"
    },
    {
      "inputs": [],
      "name": "sweep",
      "outputs": [],
      "stateMutability": "nonpayable",
      "type": "function"
    },
    {
      "inputs": [],
      "name": "totalColl",
      "outputs": [
        {
          "internalType": "uint256",
          "name": "",
          "type": "uint256"
        }
      ],
      "stateMutability": "view",
      "type": "function"
    },
    {
      "inputs": [],
      "name": "totalDebt",
      "outputs": [
        {
          "internalType": "uint256",
          "name": "",
          "type": "uint256"
        }
      ],
      "stateMutability": "view",
      "type": "function"
    },
    {
      "inputs": [
        {
          "internalType": "uint256",
          "name": "ethAmount",
          "type": "uint256"
        }
      ],
      "name": "withdraw",
      "outputs": [],
      "stateMutability": "nonpayable",
      "type": "function"
    },
    {
      "inputs": [
        {
          "internalType": "address",
          "name": "",
          "type": "address"
        }
      ],
      "name": "withdrawLocks",
      "outputs": [
        {
          "internalType": "uint256",
          "name": "",
          "type": "uint256"
        }
      ],
      "stateMutability": "view",
      "type": "function"
    }
  ],
  "bytecode": "0x6080604052606e600c60006101000a81548160ff021916908360ff1602179055506014600c60016101000a81548160ff021916908360ff1602179055506050600c60026101000a81548160ff021916908360ff1602179055506014600c60036101000a81548160ff021916908360ff1602179055506001600c60046101000a81548160ff021916908360ff1602179055503480156200009d57600080fd5b506040516200363b3803806200363b8339818101604052810190620000c39190620001f0565b600160008190555083600160006101000a81548173ffffffffffffffffffffffffffffffffffffffff021916908373ffffffffffffffffffffffffffffffffffffffff16021790555082600460006101000a81548173ffffffffffffffffffffffffffffffffffffffff021916908373ffffffffffffffffffffffffffffffffffffffff16021790555081600260006101000a81548173ffffffffffffffffffffffffffffffffffffffff021916908373ffffffffffffffffffffffffffffffffffffffff16021790555080600360006101000a81548173ffffffffffffffffffffffffffffffffffffffff021916908373ffffffffffffffffffffffffffffffffffffffff16021790555050505050620002aa565b600081519050620001ea8162000290565b92915050565b600080600080608085870312156200020757600080fd5b60006200021787828801620001d9565b94505060206200022a87828801620001d9565b93505060406200023d87828801620001d9565b92505060606200025087828801620001d9565b91505092959194509250565b6000620002698262000270565b9050919050565b600073ffffffffffffffffffffffffffffffffffffffff82169050919050565b6200029b816200025c565b8114620002a757600080fd5b50565b61338180620002ba6000396000f3fe6080604052600436106101095760003560e01c8063818bdc1811610095578063cc872b6611610064578063cc872b6614610381578063d65a06b01461039d578063fc7b9c18146103c6578063fd74b12e146103f1578063fe9fc62a1461041c57610109565b8063818bdc18146102b1578063918e1659146102ee578063b82f263d14610319578063c62386291461035657610109565b806335faa416116100dc57806335faa416146101cc578063371fd8e6146101e35780633a53b3401461020c578063663f329414610249578063794e57241461028657610109565b80631c7a75451461010e578063235ee4a7146101395780632e1a7d4d14610164578063343576f51461018d575b600080fd5b34801561011a57600080fd5b50610123610459565b6040516101309190612d89565b60405180910390f35b34801561014557600080fd5b5061014e61046c565b60405161015b9190612d37565b60405180910390f35b34801561017057600080fd5b5061018b600480360381019061018691906128b9565b610472565b005b34801561019957600080fd5b506101b460048036038101906101af9190612890565b610788565b6040516101c393929190612d52565b60405180910390f35b3480156101d857600080fd5b506101e16107bf565b005b3480156101ef57600080fd5b5061020a600480360381019061020591906128b9565b610ec7565b005b34801561021857600080fd5b50610233600480360381019061022e91906128b9565b6110e7565b6040516102409190612b78565b60405180910390f35b34801561025557600080fd5b50610270600480360381019061026b9190612947565b611126565b60405161027d9190612d37565b60405180910390f35b34801561029257600080fd5b5061029b611179565b6040516102a89190612d89565b60405180910390f35b3480156102bd57600080fd5b506102d860048036038101906102d39190612890565b61118c565b6040516102e59190612d37565b60405180910390f35b3480156102fa57600080fd5b506103036111a4565b6040516103109190612d89565b60405180910390f35b34801561032557600080fd5b50610340600480360381019061033b91906128b9565b6111b7565b60405161034d9190612d37565b60405180910390f35b34801561036257600080fd5b5061036b6111d9565b6040516103789190612d89565b60405180910390f35b61039b600480360381019061039691906128b9565b6111ec565b005b3480156103a957600080fd5b506103c460048036038101906103bf919061290b565b611c4b565b005b3480156103d257600080fd5b506103db612803565b6040516103e89190612d37565b60405180910390f35b3480156103fd57600080fd5b50610406612809565b6040516104139190612d89565b60405180910390f35b34801561042857600080fd5b50610443600480360381019061043e9190612890565b61281c565b6040516104509190612bbc565b60405180910390f35b600c60049054906101000a900460ff1681565b60085481565b600260005414156104b8576040517f08c379a00000000000000000000000000000000000000000000000000000000081526004016104af90612cf7565b60405180910390fd5b600260008190555042600b60003373ffffffffffffffffffffffffffffffffffffffff1673ffffffffffffffffffffffffffffffffffffffff168152602001908152602001600020541115610542576040517f08c379a000000000000000000000000000000000000000000000000000000000815260040161053990612c97565b60405180910390fd5b6000600460009054906101000a900473ffffffffffffffffffffffffffffffffffffffff1673ffffffffffffffffffffffffffffffffffffffff16630fdb11cf6040518163ffffffff1660e01b815260040160206040518083038186803b1580156105ac57600080fd5b505afa1580156105c0573d6000803e3d6000fd5b505050506040513d601f19601f820116820180604052508101906105e491906128e2565b90506000600560003373ffffffffffffffffffffffffffffffffffffffff1673ffffffffffffffffffffffffffffffffffffffff16815260200190815260200160002090508281600001600082825461063d9190612ed2565b9250508190555082600860008282546106569190612ed2565b92505081905550600c60009054906101000a900460ff1660ff1661068d8383600001546106839190612e78565b8360010154611126565b10156106ce576040517f08c379a00000000000000000000000000000000000000000000000000000000081526004016106c590612bf7565b60405180910390fd5b60003373ffffffffffffffffffffffffffffffffffffffff16846040516106f490612b63565b60006040518083038185875af1925050503d8060008114610731576040519150601f19603f3d011682016040523d82523d6000602084013e610736565b606091505b505090508061077a576040517f08c379a000000000000000000000000000000000000000000000000000000000815260040161077190612cb7565b60405180910390fd5b505050600160008190555050565b60056020528060005260406000206000915090508060000154908060010154908060020160009054906101000a900460ff16905083565b60026000541415610805576040517f08c379a00000000000000000000000000000000000000000000000000000000081526004016107fc90612cf7565b60405180910390fd5b60026000819055506000600160009054906101000a900473ffffffffffffffffffffffffffffffffffffffff1673ffffffffffffffffffffffffffffffffffffffff1663056ea1756040518163ffffffff1660e01b815260040160206040518083038186803b15801561087757600080fd5b505afa15801561088b573d6000803e3d6000fd5b505050506040513d601f19601f820116820180604052508101906108af91906128e2565b9050600081116108f4576040517f08c379a00000000000000000000000000000000000000000000000000000000081526004016108eb90612c57565b60405180910390fd5b60006064600c60049054906101000a900460ff166109129190612e47565b60ff16826109209190612e78565b9050600081836109309190612ed2565b905060005b600680549050811015610c9a5760006006828154811061097e577f4e487b7100000000000000000000000000000000000000000000000000000000600052603260045260246000fd5b9060005260206000200160009054906101000a900473ffffffffffffffffffffffffffffffffffffffff1690506000600560008373ffffffffffffffffffffffffffffffffffffffff1673ffffffffffffffffffffffffffffffffffffffff16815260200190815260200160002090506000600160009054906101000a900473ffffffffffffffffffffffffffffffffffffffff1673ffffffffffffffffffffffffffffffffffffffff1663056ea1756040518163ffffffff1660e01b815260040160206040518083038186803b158015610a5857600080fd5b505afa158015610a6c573d6000803e3d6000fd5b505050506040513d601f19601f82011682018060405250810190610a9091906128e2565b87610a9b9190612ed2565b905060008186610aab9190612ed2565b9050600083600001541415610c6e57600083600101548210610ad35783600101549050610ad7565b8190505b600160009054906101000a900473ffffffffffffffffffffffffffffffffffffffff1673ffffffffffffffffffffffffffffffffffffffff16630a86678b826040518263ffffffff1660e01b8152600401610b329190612d37565b600060405180830381600087803b158015610b4c57600080fd5b505af1158015610b60573d6000803e3d6000fd5b50505050600360009054906101000a900473ffffffffffffffffffffffffffffffffffffffff1673ffffffffffffffffffffffffffffffffffffffff166379cc6790600160009054906101000a900473ffffffffffffffffffffffffffffffffffffffff16836040518363ffffffff1660e01b8152600401610be3929190612b93565b600060405180830381600087803b158015610bfd57600080fd5b505af1158015610c11573d6000803e3d6000fd5b5050505080846001016000828254610c299190612ed2565b925050819055508060096000828254610c429190612ed2565b9250508190555060008460010154118460020160006101000a81548160ff021916908315150217905550505b8260010154811015610c835750505050610c9a565b505050508080610c9290612f8f565b915050610935565b506000600160009054906101000a900473ffffffffffffffffffffffffffffffffffffffff1673ffffffffffffffffffffffffffffffffffffffff1663056ea1756040518163ffffffff1660e01b815260040160206040518083038186803b158015610d0557600080fd5b505afa158015610d19573d6000803e3d6000fd5b505050506040513d601f19601f82011682018060405250810190610d3d91906128e2565b905060008185610d4d9190612ed2565b905060006064600c60049054906101000a900460ff16610d6d9190612e47565b60ff1682610d7b9190612e78565b905060003373ffffffffffffffffffffffffffffffffffffffff1682604051610da390612b63565b60006040518083038185875af1925050503d8060008114610de0576040519150601f19603f3d011682016040523d82523d6000602084013e610de5565b606091505b5050905080610e29576040517f08c379a0000000000000000000000000000000000000000000000000000000008152600401610e2090612bd7565b60405180910390fd5b600160009054906101000a900473ffffffffffffffffffffffffffffffffffffffff1673ffffffffffffffffffffffffffffffffffffffff16630a86678b836040518263ffffffff1660e01b8152600401610e849190612d37565b600060405180830381600087803b158015610e9e57600080fd5b505af1158015610eb2573d6000803e3d6000fd5b50505050505050505050506001600081905550565b6000600460009054906101000a900473ffffffffffffffffffffffffffffffffffffffff1673ffffffffffffffffffffffffffffffffffffffff16630fdb11cf6040518163ffffffff1660e01b815260040160206040518083038186803b158015610f3157600080fd5b505afa158015610f45573d6000803e3d6000fd5b505050506040513d601f19601f82011682018060405250810190610f6991906128e2565b90506000600560003373ffffffffffffffffffffffffffffffffffffffff1673ffffffffffffffffffffffffffffffffffffffff168152602001908152602001600020905082816001016000828254610fc29190612ed2565b925050819055508260096000828254610fdb9190612ed2565b92505081905550600c60009054906101000a900460ff1660ff166110128383600001546110089190612e78565b8360010154611126565b1015611053576040517f08c379a000000000000000000000000000000000000000000000000000000000815260040161104a90612c17565b60405180910390fd5b600360009054906101000a900473ffffffffffffffffffffffffffffffffffffffff1673ffffffffffffffffffffffffffffffffffffffff166379cc679033856040518363ffffffff1660e01b81526004016110b0929190612b93565b600060405180830381600087803b1580156110ca57600080fd5b505af11580156110de573d6000803e3d6000fd5b50505050505050565b600681815481106110f757600080fd5b906000526020600020016000915054906101000a900473ffffffffffffffffffffffffffffffffffffffff1681565b600080821415611158577fffffffffffffffffffffffffffffffffffffffffffffffffffffffffffffffff9050611173565b818360646111669190612e78565b6111709190612e16565b90505b92915050565b600c60009054906101000a900460ff1681565b600b6020528060005260406000206000915090505481565b600c60029054906101000a900460ff1681565b60006111d2826008546111ca9190612e78565b600954611126565b9050919050565b600c60019054906101000a900460ff1681565b600a60003373ffffffffffffffffffffffffffffffffffffffff1673ffffffffffffffffffffffffffffffffffffffff16815260200190815260200160002060009054906101000a900460ff1615611279576040517f08c379a000000000000000000000000000000000000000000000000000000000815260040161127090612c77565b60405180910390fd5b6001600a60003373ffffffffffffffffffffffffffffffffffffffff1673ffffffffffffffffffffffffffffffffffffffff16815260200190815260200160002060006101000a81548160ff02191690831515021790555060003490506000600460009054906101000a900473ffffffffffffffffffffffffffffffffffffffff1673ffffffffffffffffffffffffffffffffffffffff16630fdb11cf6040518163ffffffff1660e01b815260040160206040518083038186803b15801561134057600080fd5b505afa158015611354573d6000803e3d6000fd5b505050506040513d601f19601f8201168201806040525081019061137891906128e2565b9050600082826113889190612e78565b9050600360009054906101000a900473ffffffffffffffffffffffffffffffffffffffff1673ffffffffffffffffffffffffffffffffffffffff166340c10f1933836040518363ffffffff1660e01b81526004016113e7929190612b93565b600060405180830381600087803b15801561140157600080fd5b505af1158015611415573d6000803e3d6000fd5b5050505060006064600c60019054906101000a900460ff1660ff168361143b9190612e78565b6114459190612e16565b905060006064600c60029054906101000a900460ff1660ff16836114699190612e78565b6114739190612e16565b905060006064600c60039054906101000a900460ff1660ff16846114979190612e78565b6114a19190612e16565b9050600083856114b19190612ed2565b9050600360009054906101000a900473ffffffffffffffffffffffffffffffffffffffff1673ffffffffffffffffffffffffffffffffffffffff1663a9059cbb600160009054906101000a900473ffffffffffffffffffffffffffffffffffffffff16856040518363ffffffff1660e01b8152600401611532929190612b93565b600060405180830381600087803b15801561154c57600080fd5b505af1158015611560573d6000803e3d6000fd5b50505050600360009054906101000a900473ffffffffffffffffffffffffffffffffffffffff1673ffffffffffffffffffffffffffffffffffffffff1663a9059cbb600160009054906101000a900473ffffffffffffffffffffffffffffffffffffffff16846040518363ffffffff1660e01b81526004016115e3929190612b93565b600060405180830381600087803b1580156115fd57600080fd5b505af1158015611611573d6000803e3d6000fd5b50505050600360009054906101000a900473ffffffffffffffffffffffffffffffffffffffff1673ffffffffffffffffffffffffffffffffffffffff1663a9059cbb33836040518363ffffffff1660e01b8152600401611672929190612b93565b600060405180830381600087803b15801561168c57600080fd5b505af11580156116a0573d6000803e3d6000fd5b50505050600160009054906101000a900473ffffffffffffffffffffffffffffffffffffffff1673ffffffffffffffffffffffffffffffffffffffff1663ee9dd351846040518263ffffffff1660e01b81526004016116ff9190612d37565b600060405180830381600087803b15801561171957600080fd5b505af115801561172d573d6000803e3d6000fd5b50505050600160009054906101000a900473ffffffffffffffffffffffffffffffffffffffff1673ffffffffffffffffffffffffffffffffffffffff166309273f09836040518263ffffffff1660e01b815260040161178c9190612d37565b600060405180830381600087803b1580156117a657600080fd5b505af11580156117ba573d6000803e3d6000fd5b505050506000600560003373ffffffffffffffffffffffffffffffffffffffff1673ffffffffffffffffffffffffffffffffffffffff16815260200190815260200160002090508060020160009054906101000a900460ff161561190c57600c60009054906101000a900460ff1660ff1661185e888a846000015461183f9190612dc0565b6118499190612e78565b8b84600101546118599190612dc0565b611126565b101561189f576040517f08c379a000000000000000000000000000000000000000000000000000000000815260040161189690612c37565b60405180910390fd5b878160000160008282546118b39190612dc0565b92505081905550888160010160008282546118ce9190612dc0565b9250508190555087600860008282546118e79190612dc0565b9250508190555088600960008282546119009190612dc0565b92505081905550611a3a565b600c60009054906101000a900460ff1660ff16611934888a61192e9190612e78565b8b611126565b1015611975576040517f08c379a000000000000000000000000000000000000000000000000000000000815260040161196c90612c37565b60405180910390fd5b87816000018190555088816001018190555060018160020160006101000a81548160ff0219169083151502179055506006339080600181540180825580915050600190039060005260206000200160009091909190916101000a81548173ffffffffffffffffffffffffffffffffffffffff021916908373ffffffffffffffffffffffffffffffffffffffff1602179055508760086000828254611a199190612dc0565b925050819055508860096000828254611a329190612dc0565b925050819055505b6000600160009054906101000a900473ffffffffffffffffffffffffffffffffffffffff1673ffffffffffffffffffffffffffffffffffffffff1689604051611a8290612b63565b60006040518083038185875af1925050503d8060008114611abf576040519150601f19603f3d011682016040523d82523d6000602084013e611ac4565b606091505b5050905080611b08576040517f08c379a0000000000000000000000000000000000000000000000000000000008152600401611aff90612cd7565b60405180910390fd5b600160009054906101000a900473ffffffffffffffffffffffffffffffffffffffff1673ffffffffffffffffffffffffffffffffffffffff16638eec6f7b8a6040518263ffffffff1660e01b8152600401611b639190612d37565b600060405180830381600087803b158015611b7d57600080fd5b505af1158015611b91573d6000803e3d6000fd5b505050506000600a60003373ffffffffffffffffffffffffffffffffffffffff1673ffffffffffffffffffffffffffffffffffffffff16815260200190815260200160002060006101000a81548160ff0219169083151502179055506203f48042611bfc9190612dc0565b600b60003373ffffffffffffffffffffffffffffffffffffffff1673ffffffffffffffffffffffffffffffffffffffff1681526020019081526020016000208190555050505050505050505050565b60026000541415611c91576040517f08c379a0000000000000000000000000000000000000000000000000000000008152600401611c8890612cf7565b60405180910390fd5b60026000819055506000600160009054906101000a900473ffffffffffffffffffffffffffffffffffffffff1673ffffffffffffffffffffffffffffffffffffffff1663c05fb7246040518163ffffffff1660e01b815260040160206040518083038186803b158015611d0357600080fd5b505afa158015611d17573d6000803e3d6000fd5b505050506040513d601f19601f82011682018060405250810190611d3b91906128e2565b90506000600460009054906101000a900473ffffffffffffffffffffffffffffffffffffffff1673ffffffffffffffffffffffffffffffffffffffff16630fdb11cf6040518163ffffffff1660e01b815260040160206040518083038186803b158015611da757600080fd5b505afa158015611dbb573d6000803e3d6000fd5b505050506040513d601f19601f82011682018060405250810190611ddf91906128e2565b9050600c60009054906101000a900460ff1660ff16611dfd826111b7565b10611e3d576040517f08c379a0000000000000000000000000000000000000000000000000000000008152600401611e3490612d17565b60405180910390fd5b60005b600680549050811015611ff857600060068281548110611e89577f4e487b7100000000000000000000000000000000000000000000000000000000600052603260045260246000fd5b9060005260206000200160009054906101000a900473ffffffffffffffffffffffffffffffffffffffff1690506000600560008373ffffffffffffffffffffffffffffffffffffffff1673ffffffffffffffffffffffffffffffffffffffff16815260200190815260200160002060405180606001604052908160008201548152602001600182015481526020016002820160009054906101000a900460ff16151515158152505090506000611f52858360000151611f489190612e78565b8360200151611126565b9050600c60009054906101000a900460ff1660ff16811015611fe25760076000828152602001908152602001600020829080600181540180825580915050600190039060005260206000209060030201600090919091909150600082015181600001556020820151816001015560408201518160020160006101000a81548160ff02191690831515021790555050505b5050508080611ff090612f8f565b915050611e40565b5060008490506000600190505b600c60009054906101000a900460ff1660ff16811015612240576000819050600060076000838152602001908152602001600020905060005b818054905081101561222a576000828281548110612085577f4e487b7100000000000000000000000000000000000000000000000000000000600052603260045260246000fd5b906000526020600020906003020190506000816001015490506000826001015488106120b3578190506120b7565b8790505b8781111561218d576000600190505b86811015612184576000600190505b8581101561217057600760008381526020019081526020016000208181548110612128577f4e487b7100000000000000000000000000000000000000000000000000000000600052603260045260246000fd5b906000526020600020906003020160008082016000905560018201600090556002820160006101000a81549060ff02191690555050808061216890612f8f565b9150506120d5565b50808061217c90612f8f565b9150506120c6565b5050505061222a565b6000898261219b9190612e16565b9050818460010160008282546121b19190612ed2565b92505081905550808460000160008282546121cc9190612ed2565b9250508190555081600960008282546121e59190612ed2565b9250508190555080600860008282546121fe9190612ed2565b9250508190555081896122119190612ed2565b985050505050808061222290612f8f565b91505061203e565b505050808061223890612f8f565b915050612005565b506000600160009054906101000a900473ffffffffffffffffffffffffffffffffffffffff1673ffffffffffffffffffffffffffffffffffffffff1663c05fb7246040518163ffffffff1660e01b815260040160206040518083038186803b1580156122ab57600080fd5b505afa1580156122bf573d6000803e3d6000fd5b505050506040513d601f19601f820116820180604052508101906122e391906128e2565b846122ee9190612ed2565b9050600083826122fe9190612e16565b905060006064600c60049054906101000a900460ff1660646123209190612f06565b60ff168361232e9190612e78565b6123389190612e16565b905086156125f657600360009054906101000a900473ffffffffffffffffffffffffffffffffffffffff1673ffffffffffffffffffffffffffffffffffffffff166379cc6790600160009054906101000a900473ffffffffffffffffffffffffffffffffffffffff16856040518363ffffffff1660e01b81526004016123bf929190612b93565b600060405180830381600087803b1580156123d957600080fd5b505af11580156123ed573d6000803e3d6000fd5b50505050600160009054906101000a900473ffffffffffffffffffffffffffffffffffffffff1673ffffffffffffffffffffffffffffffffffffffff166391fc0a3a846040518263ffffffff1660e01b815260040161244c9190612d37565b600060405180830381600087803b15801561246657600080fd5b505af115801561247a573d6000803e3d6000fd5b50505050600160009054906101000a900473ffffffffffffffffffffffffffffffffffffffff1673ffffffffffffffffffffffffffffffffffffffff1663e9ecc1ee826040518263ffffffff1660e01b81526004016124d99190612d37565b600060405180830381600087803b1580156124f357600080fd5b505af1158015612507573d6000803e3d6000fd5b50505050600160009054906101000a900473ffffffffffffffffffffffffffffffffffffffff1673ffffffffffffffffffffffffffffffffffffffff166364a197f3600160009054906101000a900473ffffffffffffffffffffffffffffffffffffffff166064600c60049054906101000a900460ff16606461258a9190612f06565b60ff16856125989190612e78565b6125a29190612e16565b6040518363ffffffff1660e01b81526004016125bf929190612b93565b600060405180830381600087803b1580156125d957600080fd5b505af11580156125ed573d6000803e3d6000fd5b50505050612715565b600360009054906101000a900473ffffffffffffffffffffffffffffffffffffffff1673ffffffffffffffffffffffffffffffffffffffff166379cc679033856040518363ffffffff1660e01b8152600401612653929190612b93565b600060405180830381600087803b15801561266d57600080fd5b505af1158015612681573d6000803e3d6000fd5b50505050600160009054906101000a900473ffffffffffffffffffffffffffffffffffffffff1673ffffffffffffffffffffffffffffffffffffffff166364a197f333836040518363ffffffff1660e01b81526004016126e2929190612b93565b600060405180830381600087803b1580156126fc57600080fd5b505af1158015612710573d6000803e3d6000fd5b505050505b60006064600c60049054906101000a900460ff166127339190612e47565b60ff16836127419190612e78565b905060003373ffffffffffffffffffffffffffffffffffffffff168260405161276990612b63565b60006040518083038185875af1925050503d80600081146127a6576040519150601f19603f3d011682016040523d82523d6000602084013e6127ab565b606091505b50509050806127ef576040517f08c379a00000000000000000000000000000000000000000000000000000000081526004016127e690612bd7565b60405180910390fd5b505050505050505060016000819055505050565b60095481565b600c60039054906101000a900460ff1681565b600a6020528060005260406000206000915054906101000a900460ff1681565b60008135905061284b81613306565b92915050565b6000813590506128608161331d565b92915050565b60008135905061287581613334565b92915050565b60008151905061288a81613334565b92915050565b6000602082840312156128a257600080fd5b60006128b08482850161283c565b91505092915050565b6000602082840312156128cb57600080fd5b60006128d984828501612866565b91505092915050565b6000602082840312156128f457600080fd5b60006129028482850161287b565b91505092915050565b6000806040838503121561291e57600080fd5b600061292c85828601612866565b925050602061293d85828601612851565b9150509250929050565b6000806040838503121561295a57600080fd5b600061296885828601612866565b925050602061297985828601612866565b9150509250929050565b61298c81612f3a565b82525050565b61299b81612f4c565b82525050565b60006129ae601c83612daf565b91506129b982613036565b602082019050919050565b60006129d1602d83612daf565b91506129dc8261305f565b604082019050919050565b60006129f4602c83612daf565b91506129ff826130ae565b604082019050919050565b6000612a17603783612daf565b9150612a22826130fd565b604082019050919050565b6000612a3a602c83612daf565b9150612a458261314c565b604082019050919050565b6000612a5d602983612daf565b9150612a688261319b565b604082019050919050565b6000612a80600083612da4565b9150612a8b826131ea565b600082019050919050565b6000612aa3602b83612daf565b9150612aae826131ed565b604082019050919050565b6000612ac6601383612daf565b9150612ad18261323c565b602082019050919050565b6000612ae9600f83612daf565b9150612af482613265565b602082019050919050565b6000612b0c601f83612daf565b9150612b178261328e565b602082019050919050565b6000612b2f602d83612daf565b9150612b3a826132b7565b604082019050919050565b612b4e81612f78565b82525050565b612b5d81612f82565b82525050565b6000612b6e82612a73565b9150819050919050565b6000602082019050612b8d6000830184612983565b92915050565b6000604082019050612ba86000830185612983565b612bb56020830184612b45565b9392505050565b6000602082019050612bd16000830184612992565b92915050565b60006020820190508181036000830152612bf0816129a1565b9050919050565b60006020820190508181036000830152612c10816129c4565b9050919050565b60006020820190508181036000830152612c30816129e7565b9050919050565b60006020820190508181036000830152612c5081612a0a565b9050919050565b60006020820190508181036000830152612c7081612a2d565b9050919050565b60006020820190508181036000830152612c9081612a50565b9050919050565b60006020820190508181036000830152612cb081612a96565b9050919050565b60006020820190508181036000830152612cd081612ab9565b9050919050565b60006020820190508181036000830152612cf081612adc565b9050919050565b60006020820190508181036000830152612d1081612aff565b9050919050565b60006020820190508181036000830152612d3081612b22565b9050919050565b6000602082019050612d4c6000830184612b45565b92915050565b6000606082019050612d676000830186612b45565b612d746020830185612b45565b612d816040830184612992565b949350505050565b6000602082019050612d9e6000830184612b54565b92915050565b600081905092915050565b600082825260208201905092915050565b6000612dcb82612f78565b9150612dd683612f78565b9250827fffffffffffffffffffffffffffffffffffffffffffffffffffffffffffffffff03821115612e0b57612e0a612fd8565b5b828201905092915050565b6000612e2182612f78565b9150612e2c83612f78565b925082612e3c57612e3b613007565b5b828204905092915050565b6000612e5282612f82565b9150612e5d83612f82565b925082612e6d57612e6c613007565b5b828204905092915050565b6000612e8382612f78565b9150612e8e83612f78565b9250817fffffffffffffffffffffffffffffffffffffffffffffffffffffffffffffffff0483118215151615612ec757612ec6612fd8565b5b828202905092915050565b6000612edd82612f78565b9150612ee883612f78565b925082821015612efb57612efa612fd8565b5b828203905092915050565b6000612f1182612f82565b9150612f1c83612f82565b925082821015612f2f57612f2e612fd8565b5b828203905092915050565b6000612f4582612f58565b9050919050565b60008115159050919050565b600073ffffffffffffffffffffffffffffffffffffffff82169050919050565b6000819050919050565b600060ff82169050919050565b6000612f9a82612f78565b91507fffffffffffffffffffffffffffffffffffffffffffffffffffffffffffffffff821415612fcd57612fcc612fd8565b5b600182019050919050565b7f4e487b7100000000000000000000000000000000000000000000000000000000600052601160045260246000fd5b7f4e487b7100000000000000000000000000000000000000000000000000000000600052601260045260246000fd5b7f476173207061796261636b20686173206265656e206661696c65642e00000000600082015250565b7f5769746864726177616c206661696c7572653a20494352206973206e6f74206d60008201527f6f7265207468616e204d43522e00000000000000000000000000000000000000602082015250565b7f52657061796d656e74206661696c7572653a20494352206973206e6f74206d6f60008201527f7265207468616e204d43522e0000000000000000000000000000000000000000602082015250565b7f54686973206d696e74696e6720697320696e76616c696420626563617573652060008201527f6f6620746f6f206c6172676520626f72726f77696e672e000000000000000000602082015250565b7f5377656570206661696c7572653a20646562742063616e63656c20726573657260008201527f766520697320656d7074792e0000000000000000000000000000000000000000602082015250565b7f49737375616e6365206973206265696e67206c6f636b656420666f722074686960008201527f732073656e6465722e0000000000000000000000000000000000000000000000602082015250565b50565b7f5769746864726177616c206973206265696e67206c6f636b656420666f72207460008201527f6869732073656e6465722e000000000000000000000000000000000000000000602082015250565b7f455448207472616e73666572206661696c656400000000000000000000000000600082015250565b7f7472616e73666572206661696c65640000000000000000000000000000000000600082015250565b7f5265656e7472616e637947756172643a207265656e7472616e742063616c6c00600082015250565b7f526564656d7074696f6e206661696c7572653a20544352206973206e6f74206c60008201527f657373207468616e204d43522e00000000000000000000000000000000000000602082015250565b61330f81612f3a565b811461331a57600080fd5b50565b61332681612f4c565b811461333157600080fd5b50565b61333d81612f78565b811461334857600080fd5b5056fea2646970667358221220b89e5ba8777b26778599f342a7968d9fff651a22e901364796a160911381af8164736f6c63430008030033",
  "linkReferences": {},
  "deployedLinkReferences": {}
}