{
  "_format": "hh-sol-artifact-1",
  "contractName": "Yamato",
  "sourceName": "contracts/Yamato.sol",
  "abi": [
    {
      "inputs": [],
      "name": "DCRR",
      "outputs": [
        {
          "internalType": "uint8",
          "name": "",
          "type": "uint8"
        }
      ],
      "stateMutability": "view",
      "type": "function"
    },
    {
      "inputs": [],
      "name": "FR",
      "outputs": [
        {
          "internalType": "uint8",
          "name": "",
          "type": "uint8"
        }
      ],
      "stateMutability": "view",
      "type": "function"
    },
    {
      "inputs": [],
      "name": "GRR",
      "outputs": [
        {
          "internalType": "uint8",
          "name": "",
          "type": "uint8"
        }
      ],
      "stateMutability": "view",
      "type": "function"
    },
    {
      "inputs": [],
      "name": "MCR",
      "outputs": [
        {
          "internalType": "uint8",
          "name": "",
          "type": "uint8"
        }
      ],
      "stateMutability": "view",
      "type": "function"
    },
    {
      "inputs": [],
      "name": "RRR",
      "outputs": [
        {
          "internalType": "uint8",
          "name": "",
          "type": "uint8"
        }
      ],
      "stateMutability": "view",
      "type": "function"
    },
    {
      "inputs": [
        {
          "internalType": "uint256",
          "name": "collInCjpy",
          "type": "uint256"
        },
        {
          "internalType": "uint256",
          "name": "debt",
          "type": "uint256"
        }
      ],
      "name": "getICR",
      "outputs": [
        {
          "internalType": "uint256",
          "name": "ICR",
          "type": "uint256"
        }
      ],
      "stateMutability": "pure",
      "type": "function"
    },
    {
      "inputs": [
        {
          "internalType": "uint256",
          "name": "jpyPerEth",
          "type": "uint256"
        }
      ],
      "name": "getTCR",
      "outputs": [
        {
          "internalType": "uint256",
          "name": "TCR",
          "type": "uint256"
        }
      ],
      "stateMutability": "view",
      "type": "function"
    },
    {
      "inputs": [
        {
          "internalType": "uint256",
          "name": "issueAmountInCjpy",
          "type": "uint256"
        }
      ],
      "name": "issue",
      "outputs": [],
      "stateMutability": "payable",
      "type": "function"
    },
    {
      "inputs": [
        {
          "internalType": "address",
          "name": "",
          "type": "address"
        }
      ],
      "name": "issueLocks",
      "outputs": [
        {
          "internalType": "bool",
          "name": "",
          "type": "bool"
        }
      ],
      "stateMutability": "view",
      "type": "function"
    },
    {
      "inputs": [
        {
          "internalType": "address",
          "name": "",
          "type": "address"
        }
      ],
      "name": "pledges",
      "outputs": [
        {
          "internalType": "uint256",
          "name": "coll",
          "type": "uint256"
        },
        {
          "internalType": "uint256",
          "name": "debt",
          "type": "uint256"
        },
        {
          "internalType": "bool",
          "name": "isCreated",
          "type": "bool"
        }
      ],
      "stateMutability": "view",
      "type": "function"
    },
    {
      "inputs": [
        {
          "internalType": "uint256",
          "name": "",
          "type": "uint256"
        }
      ],
      "name": "pledgesIndices",
      "outputs": [
        {
          "internalType": "address",
          "name": "",
          "type": "address"
        }
      ],
      "stateMutability": "view",
      "type": "function"
    },
    {
      "inputs": [
        {
          "internalType": "uint256",
          "name": "maxRedemptionCjpyAmount",
          "type": "uint256"
        },
        {
          "internalType": "bool",
          "name": "isCoreRedemption",
          "type": "bool"
        }
      ],
      "name": "redeem",
      "outputs": [],
      "stateMutability": "nonpayable",
      "type": "function"
    },
    {
      "inputs": [
        {
          "internalType": "uint256",
          "name": "cjpyAmount",
          "type": "uint256"
        }
      ],
      "name": "repay",
      "outputs": [],
      "stateMutability": "nonpayable",
      "type": "function"
    },
    {
      "inputs": [],
      "name": "sweep",
      "outputs": [],
      "stateMutability": "nonpayable",
      "type": "function"
    },
    {
      "inputs": [],
      "name": "totalColl",
      "outputs": [
        {
          "internalType": "uint256",
          "name": "",
          "type": "uint256"
        }
      ],
      "stateMutability": "view",
      "type": "function"
    },
    {
      "inputs": [],
      "name": "totalDebt",
      "outputs": [
        {
          "internalType": "uint256",
          "name": "",
          "type": "uint256"
        }
      ],
      "stateMutability": "view",
      "type": "function"
    },
    {
      "inputs": [
        {
          "internalType": "uint256",
          "name": "ethAmount",
          "type": "uint256"
        }
      ],
      "name": "withdraw",
      "outputs": [],
      "stateMutability": "nonpayable",
      "type": "function"
    },
    {
      "inputs": [
        {
          "internalType": "address",
          "name": "",
          "type": "address"
        }
      ],
      "name": "withdrawLocks",
      "outputs": [
        {
          "internalType": "uint256",
          "name": "",
          "type": "uint256"
        }
      ],
      "stateMutability": "view",
      "type": "function"
    }
  ],
  "bytecode": "0x60806040526000600160006101000a81548173ffffffffffffffffffffffffffffffffffffffff021916908373ffffffffffffffffffffffffffffffffffffffff1602179055506000600260006101000a81548173ffffffffffffffffffffffffffffffffffffffff021916908373ffffffffffffffffffffffffffffffffffffffff1602179055506000600360006101000a81548173ffffffffffffffffffffffffffffffffffffffff021916908373ffffffffffffffffffffffffffffffffffffffff1602179055506000600460006101000a81548173ffffffffffffffffffffffffffffffffffffffff021916908373ffffffffffffffffffffffffffffffffffffffff160217905550606e600c60006101000a81548160ff021916908360ff1602179055506014600c60016101000a81548160ff021916908360ff1602179055506050600c60026101000a81548160ff021916908360ff1602179055506014600c60036101000a81548160ff021916908360ff1602179055506001600c60046101000a81548160ff021916908360ff1602179055503480156101a457600080fd5b506001600081905550613407806101bc6000396000f3fe6080604052600436106101095760003560e01c8063818bdc1811610095578063cc872b6611610064578063cc872b6614610381578063d65a06b01461039d578063fc7b9c18146103c6578063fd74b12e146103f1578063fe9fc62a1461041c57610109565b8063818bdc18146102b1578063918e1659146102ee578063b82f263d14610319578063c62386291461035657610109565b806335faa416116100dc57806335faa416146101cc578063371fd8e6146101e35780633a53b3401461020c578063663f329414610249578063794e57241461028657610109565b80631c7a75451461010e578063235ee4a7146101395780632e1a7d4d14610164578063343576f51461018d575b600080fd5b34801561011a57600080fd5b50610123610459565b6040516101309190612e0f565b60405180910390f35b34801561014557600080fd5b5061014e61046c565b60405161015b9190612dbd565b60405180910390f35b34801561017057600080fd5b5061018b60048036038101906101869190612903565b610472565b005b34801561019957600080fd5b506101b460048036038101906101af91906128da565b61079c565b6040516101c393929190612dd8565b60405180910390f35b3480156101d857600080fd5b506101e16107d3565b005b3480156101ef57600080fd5b5061020a60048036038101906102059190612903565b610edb565b005b34801561021857600080fd5b50610233600480360381019061022e9190612903565b61110f565b6040516102409190612bfe565b60405180910390f35b34801561025557600080fd5b50610270600480360381019061026b9190612991565b61114e565b60405161027d9190612dbd565b60405180910390f35b34801561029257600080fd5b5061029b6111a1565b6040516102a89190612e0f565b60405180910390f35b3480156102bd57600080fd5b506102d860048036038101906102d391906128da565b6111b4565b6040516102e59190612dbd565b60405180910390f35b3480156102fa57600080fd5b506103036111cc565b6040516103109190612e0f565b60405180910390f35b34801561032557600080fd5b50610340600480360381019061033b9190612903565b6111df565b60405161034d9190612dbd565b60405180910390f35b34801561036257600080fd5b5061036b611201565b6040516103789190612e0f565b60405180910390f35b61039b60048036038101906103969190612903565b611214565b005b3480156103a957600080fd5b506103c460048036038101906103bf9190612955565b611c81565b005b3480156103d257600080fd5b506103db61284d565b6040516103e89190612dbd565b60405180910390f35b3480156103fd57600080fd5b50610406612853565b6040516104139190612e0f565b60405180910390f35b34801561042857600080fd5b50610443600480360381019061043e91906128da565b612866565b6040516104509190612c42565b60405180910390f35b600c60049054906101000a900460ff1681565b60085481565b600260005414156104b8576040517f08c379a00000000000000000000000000000000000000000000000000000000081526004016104af90612d7d565b60405180910390fd5b600260008190555042600b60003373ffffffffffffffffffffffffffffffffffffffff1673ffffffffffffffffffffffffffffffffffffffff168152602001908152602001600020541115610542576040517f08c379a000000000000000000000000000000000000000000000000000000000815260040161053990612d1d565b60405180910390fd5b600080600460009054906101000a900473ffffffffffffffffffffffffffffffffffffffff1673ffffffffffffffffffffffffffffffffffffffff16630fdb11cf6040518163ffffffff1660e01b8152600401604080518083038186803b1580156105ac57600080fd5b505afa1580156105c0573d6000803e3d6000fd5b505050506040513d601f19601f820116820180604052508101906105e491906129cd565b91509150600081836105f69190612e9c565b90506000600560003373ffffffffffffffffffffffffffffffffffffffff1673ffffffffffffffffffffffffffffffffffffffff16815260200190815260200160002090508481600001600082825461064f9190612f58565b9250508190555084600860008282546106689190612f58565b92505081905550600c60009054906101000a900460ff1660ff1661069f8383600001546106959190612efe565b836001015461114e565b10156106e0576040517f08c379a00000000000000000000000000000000000000000000000000000000081526004016106d790612c7d565b60405180910390fd5b60003373ffffffffffffffffffffffffffffffffffffffff168660405161070690612be9565b60006040518083038185875af1925050503d8060008114610743576040519150601f19603f3d011682016040523d82523d6000602084013e610748565b606091505b505090508061078c576040517f08c379a000000000000000000000000000000000000000000000000000000000815260040161078390612d3d565b60405180910390fd5b5050505050600160008190555050565b60056020528060005260406000206000915090508060000154908060010154908060020160009054906101000a900460ff16905083565b60026000541415610819576040517f08c379a000000000000000000000000000000000000000000000000000000000815260040161081090612d7d565b60405180910390fd5b60026000819055506000600160009054906101000a900473ffffffffffffffffffffffffffffffffffffffff1673ffffffffffffffffffffffffffffffffffffffff1663056ea1756040518163ffffffff1660e01b815260040160206040518083038186803b15801561088b57600080fd5b505afa15801561089f573d6000803e3d6000fd5b505050506040513d601f19601f820116820180604052508101906108c3919061292c565b905060008111610908576040517f08c379a00000000000000000000000000000000000000000000000000000000081526004016108ff90612cdd565b60405180910390fd5b60006064600c60049054906101000a900460ff166109269190612ecd565b60ff16826109349190612efe565b9050600081836109449190612f58565b905060005b600680549050811015610cae57600060068281548110610992577f4e487b7100000000000000000000000000000000000000000000000000000000600052603260045260246000fd5b9060005260206000200160009054906101000a900473ffffffffffffffffffffffffffffffffffffffff1690506000600560008373ffffffffffffffffffffffffffffffffffffffff1673ffffffffffffffffffffffffffffffffffffffff16815260200190815260200160002090506000600160009054906101000a900473ffffffffffffffffffffffffffffffffffffffff1673ffffffffffffffffffffffffffffffffffffffff1663056ea1756040518163ffffffff1660e01b815260040160206040518083038186803b158015610a6c57600080fd5b505afa158015610a80573d6000803e3d6000fd5b505050506040513d601f19601f82011682018060405250810190610aa4919061292c565b87610aaf9190612f58565b905060008186610abf9190612f58565b9050600083600001541415610c8257600083600101548210610ae75783600101549050610aeb565b8190505b600160009054906101000a900473ffffffffffffffffffffffffffffffffffffffff1673ffffffffffffffffffffffffffffffffffffffff16630a86678b826040518263ffffffff1660e01b8152600401610b469190612dbd565b600060405180830381600087803b158015610b6057600080fd5b505af1158015610b74573d6000803e3d6000fd5b50505050600360009054906101000a900473ffffffffffffffffffffffffffffffffffffffff1673ffffffffffffffffffffffffffffffffffffffff166379cc6790600160009054906101000a900473ffffffffffffffffffffffffffffffffffffffff16836040518363ffffffff1660e01b8152600401610bf7929190612c19565b600060405180830381600087803b158015610c1157600080fd5b505af1158015610c25573d6000803e3d6000fd5b5050505080846001016000828254610c3d9190612f58565b925050819055508060096000828254610c569190612f58565b9250508190555060008460010154118460020160006101000a81548160ff021916908315150217905550505b8260010154811015610c975750505050610cae565b505050508080610ca690613015565b915050610949565b506000600160009054906101000a900473ffffffffffffffffffffffffffffffffffffffff1673ffffffffffffffffffffffffffffffffffffffff1663056ea1756040518163ffffffff1660e01b815260040160206040518083038186803b158015610d1957600080fd5b505afa158015610d2d573d6000803e3d6000fd5b505050506040513d601f19601f82011682018060405250810190610d51919061292c565b905060008185610d619190612f58565b905060006064600c60049054906101000a900460ff16610d819190612ecd565b60ff1682610d8f9190612efe565b905060003373ffffffffffffffffffffffffffffffffffffffff1682604051610db790612be9565b60006040518083038185875af1925050503d8060008114610df4576040519150601f19603f3d011682016040523d82523d6000602084013e610df9565b606091505b5050905080610e3d576040517f08c379a0000000000000000000000000000000000000000000000000000000008152600401610e3490612c5d565b60405180910390fd5b600160009054906101000a900473ffffffffffffffffffffffffffffffffffffffff1673ffffffffffffffffffffffffffffffffffffffff16630a86678b836040518263ffffffff1660e01b8152600401610e989190612dbd565b600060405180830381600087803b158015610eb257600080fd5b505af1158015610ec6573d6000803e3d6000fd5b50505050505050505050506001600081905550565b600080600460009054906101000a900473ffffffffffffffffffffffffffffffffffffffff1673ffffffffffffffffffffffffffffffffffffffff16630fdb11cf6040518163ffffffff1660e01b8152600401604080518083038186803b158015610f4557600080fd5b505afa158015610f59573d6000803e3d6000fd5b505050506040513d601f19601f82011682018060405250810190610f7d91906129cd565b9150915060008183610f8f9190612e9c565b90506000600560003373ffffffffffffffffffffffffffffffffffffffff1673ffffffffffffffffffffffffffffffffffffffff168152602001908152602001600020905084816001016000828254610fe89190612f58565b9250508190555084600960008282546110019190612f58565b92505081905550600c60009054906101000a900460ff1660ff1661103883836000015461102e9190612efe565b836001015461114e565b1015611079576040517f08c379a000000000000000000000000000000000000000000000000000000000815260040161107090612c9d565b60405180910390fd5b600360009054906101000a900473ffffffffffffffffffffffffffffffffffffffff1673ffffffffffffffffffffffffffffffffffffffff166379cc679033876040518363ffffffff1660e01b81526004016110d6929190612c19565b600060405180830381600087803b1580156110f057600080fd5b505af1158015611104573d6000803e3d6000fd5b505050505050505050565b6006818154811061111f57600080fd5b906000526020600020016000915054906101000a900473ffffffffffffffffffffffffffffffffffffffff1681565b600080821415611180577fffffffffffffffffffffffffffffffffffffffffffffffffffffffffffffffff905061119b565b6064828461118e9190612e9c565b6111989190612efe565b90505b92915050565b600c60009054906101000a900460ff1681565b600b6020528060005260406000206000915090505481565b600c60029054906101000a900460ff1681565b60006111fa826008546111f29190612efe565b60095461114e565b9050919050565b600c60019054906101000a900460ff1681565b600a60003373ffffffffffffffffffffffffffffffffffffffff1673ffffffffffffffffffffffffffffffffffffffff16815260200190815260200160002060009054906101000a900460ff16156112a1576040517f08c379a000000000000000000000000000000000000000000000000000000000815260040161129890612cfd565b60405180910390fd5b6001600a60003373ffffffffffffffffffffffffffffffffffffffff1673ffffffffffffffffffffffffffffffffffffffff16815260200190815260200160002060006101000a81548160ff0219169083151502179055506000349050600080600460009054906101000a900473ffffffffffffffffffffffffffffffffffffffff1673ffffffffffffffffffffffffffffffffffffffff16630fdb11cf6040518163ffffffff1660e01b8152600401604080518083038186803b15801561136857600080fd5b505afa15801561137c573d6000803e3d6000fd5b505050506040513d601f19601f820116820180604052508101906113a091906129cd565b91509150600081836113b29190612e9c565b9050600084826113c29190612efe565b9050600360009054906101000a900473ffffffffffffffffffffffffffffffffffffffff1673ffffffffffffffffffffffffffffffffffffffff166340c10f1933836040518363ffffffff1660e01b8152600401611421929190612c19565b600060405180830381600087803b15801561143b57600080fd5b505af115801561144f573d6000803e3d6000fd5b5050505060006064600c60019054906101000a900460ff1660ff16836114759190612efe565b61147f9190612e9c565b905060006064600c60029054906101000a900460ff1660ff16836114a39190612efe565b6114ad9190612e9c565b905060006064600c60039054906101000a900460ff1660ff16846114d19190612efe565b6114db9190612e9c565b9050600360009054906101000a900473ffffffffffffffffffffffffffffffffffffffff1673ffffffffffffffffffffffffffffffffffffffff1663a9059cbb600160009054906101000a900473ffffffffffffffffffffffffffffffffffffffff16846040518363ffffffff1660e01b815260040161155c929190612c19565b600060405180830381600087803b15801561157657600080fd5b505af115801561158a573d6000803e3d6000fd5b50505050600360009054906101000a900473ffffffffffffffffffffffffffffffffffffffff1673ffffffffffffffffffffffffffffffffffffffff1663a9059cbb600160009054906101000a900473ffffffffffffffffffffffffffffffffffffffff16836040518363ffffffff1660e01b815260040161160d929190612c19565b600060405180830381600087803b15801561162757600080fd5b505af115801561163b573d6000803e3d6000fd5b50505050600360009054906101000a900473ffffffffffffffffffffffffffffffffffffffff1673ffffffffffffffffffffffffffffffffffffffff1663a9059cbb33858761168a9190612f58565b6040518363ffffffff1660e01b81526004016116a7929190612c19565b600060405180830381600087803b1580156116c157600080fd5b505af11580156116d5573d6000803e3d6000fd5b50505050600160009054906101000a900473ffffffffffffffffffffffffffffffffffffffff1673ffffffffffffffffffffffffffffffffffffffff1663ee9dd351836040518263ffffffff1660e01b81526004016117349190612dbd565b600060405180830381600087803b15801561174e57600080fd5b505af1158015611762573d6000803e3d6000fd5b50505050600160009054906101000a900473ffffffffffffffffffffffffffffffffffffffff1673ffffffffffffffffffffffffffffffffffffffff166309273f09826040518263ffffffff1660e01b81526004016117c19190612dbd565b600060405180830381600087803b1580156117db57600080fd5b505af11580156117ef573d6000803e3d6000fd5b505050506000600560003373ffffffffffffffffffffffffffffffffffffffff1673ffffffffffffffffffffffffffffffffffffffff16815260200190815260200160002090508060020160009054906101000a900460ff161561194157600c60009054906101000a900460ff1660ff16611893878b84600001546118749190612e46565b61187e9190612efe565b8c846001015461188e9190612e46565b61114e565b10156118d4576040517f08c379a00000000000000000000000000000000000000000000000000000000081526004016118cb90612cbd565b60405180910390fd5b888160000160008282546118e89190612e46565b92505081905550898160010160008282546119039190612e46565b92505081905550886008600082825461191c9190612e46565b9250508190555089600960008282546119359190612e46565b92505081905550611a6f565b600c60009054906101000a900460ff1660ff16611969878b6119639190612efe565b8c61114e565b10156119aa576040517f08c379a00000000000000000000000000000000000000000000000000000000081526004016119a190612cbd565b60405180910390fd5b88816000018190555084816001018190555060018160020160006101000a81548160ff0219169083151502179055506006339080600181540180825580915050600190039060005260206000200160009091909190916101000a81548173ffffffffffffffffffffffffffffffffffffffff021916908373ffffffffffffffffffffffffffffffffffffffff1602179055508860086000828254611a4e9190612e46565b925050819055508460096000828254611a679190612e46565b925050819055505b6000600160009054906101000a900473ffffffffffffffffffffffffffffffffffffffff1673ffffffffffffffffffffffffffffffffffffffff168a604051611ab790612be9565b60006040518083038185875af1925050503d8060008114611af4576040519150601f19603f3d011682016040523d82523d6000602084013e611af9565b606091505b5050905080611b3d576040517f08c379a0000000000000000000000000000000000000000000000000000000008152600401611b3490612d5d565b60405180910390fd5b600160009054906101000a900473ffffffffffffffffffffffffffffffffffffffff1673ffffffffffffffffffffffffffffffffffffffff16638eec6f7b8b6040518263ffffffff1660e01b8152600401611b989190612dbd565b600060405180830381600087803b158015611bb257600080fd5b505af1158015611bc6573d6000803e3d6000fd5b505050506000600a60003373ffffffffffffffffffffffffffffffffffffffff1673ffffffffffffffffffffffffffffffffffffffff16815260200190815260200160002060006101000a81548160ff0219169083151502179055506203f48042611c319190612e46565b600b60003373ffffffffffffffffffffffffffffffffffffffff1673ffffffffffffffffffffffffffffffffffffffff168152602001908152602001600020819055505050505050505050505050565b60026000541415611cc7576040517f08c379a0000000000000000000000000000000000000000000000000000000008152600401611cbe90612d7d565b60405180910390fd5b60026000819055506000600160009054906101000a900473ffffffffffffffffffffffffffffffffffffffff1673ffffffffffffffffffffffffffffffffffffffff1663c05fb7246040518163ffffffff1660e01b815260040160206040518083038186803b158015611d3957600080fd5b505afa158015611d4d573d6000803e3d6000fd5b505050506040513d601f19601f82011682018060405250810190611d71919061292c565b9050600080600460009054906101000a900473ffffffffffffffffffffffffffffffffffffffff1673ffffffffffffffffffffffffffffffffffffffff16630fdb11cf6040518163ffffffff1660e01b8152600401604080518083038186803b158015611ddd57600080fd5b505afa158015611df1573d6000803e3d6000fd5b505050506040513d601f19601f82011682018060405250810190611e1591906129cd565b9150915060008183611e279190612e9c565b9050600c60009054906101000a900460ff1660ff16611e45826111df565b10611e85576040517f08c379a0000000000000000000000000000000000000000000000000000000008152600401611e7c90612d9d565b60405180910390fd5b60005b60068054905081101561204057600060068281548110611ed1577f4e487b7100000000000000000000000000000000000000000000000000000000600052603260045260246000fd5b9060005260206000200160009054906101000a900473ffffffffffffffffffffffffffffffffffffffff1690506000600560008373ffffffffffffffffffffffffffffffffffffffff1673ffffffffffffffffffffffffffffffffffffffff16815260200190815260200160002060405180606001604052908160008201548152602001600182015481526020016002820160009054906101000a900460ff16151515158152505090506000611f9a858360000151611f909190612efe565b836020015161114e565b9050600c60009054906101000a900460ff1660ff1681101561202a5760076000828152602001908152602001600020829080600181540180825580915050600190039060005260206000209060030201600090919091909150600082015181600001556020820151816001015560408201518160020160006101000a81548160ff02191690831515021790555050505b505050808061203890613015565b915050611e88565b5060008690506000600190505b600c60009054906101000a900460ff1660ff16811015612288576000819050600060076000838152602001908152602001600020905060005b81805490508110156122725760008282815481106120cd577f4e487b7100000000000000000000000000000000000000000000000000000000600052603260045260246000fd5b906000526020600020906003020190506000816001015490506000826001015488106120fb578190506120ff565b8790505b878111156121d5576000600190505b868110156121cc576000600190505b858110156121b857600760008381526020019081526020016000208181548110612170577f4e487b7100000000000000000000000000000000000000000000000000000000600052603260045260246000fd5b906000526020600020906003020160008082016000905560018201600090556002820160006101000a81549060ff0219169055505080806121b090613015565b91505061211d565b5080806121c490613015565b91505061210e565b50505050612272565b600089826121e39190612e9c565b9050818460010160008282546121f99190612f58565b92505081905550808460000160008282546122149190612f58565b92505081905550816009600082825461222d9190612f58565b9250508190555080600860008282546122469190612f58565b9250508190555081896122599190612f58565b985050505050808061226a90613015565b915050612086565b505050808061228090613015565b91505061204d565b506000600160009054906101000a900473ffffffffffffffffffffffffffffffffffffffff1673ffffffffffffffffffffffffffffffffffffffff1663c05fb7246040518163ffffffff1660e01b815260040160206040518083038186803b1580156122f357600080fd5b505afa158015612307573d6000803e3d6000fd5b505050506040513d601f19601f8201168201806040525081019061232b919061292c565b866123369190612f58565b9050600083826123469190612e9c565b905060006064600c60049054906101000a900460ff1660646123689190612f8c565b60ff16836123769190612efe565b6123809190612e9c565b9050881561263e57600360009054906101000a900473ffffffffffffffffffffffffffffffffffffffff1673ffffffffffffffffffffffffffffffffffffffff166379cc6790600160009054906101000a900473ffffffffffffffffffffffffffffffffffffffff16856040518363ffffffff1660e01b8152600401612407929190612c19565b600060405180830381600087803b15801561242157600080fd5b505af1158015612435573d6000803e3d6000fd5b50505050600160009054906101000a900473ffffffffffffffffffffffffffffffffffffffff1673ffffffffffffffffffffffffffffffffffffffff166391fc0a3a846040518263ffffffff1660e01b81526004016124949190612dbd565b600060405180830381600087803b1580156124ae57600080fd5b505af11580156124c2573d6000803e3d6000fd5b50505050600160009054906101000a900473ffffffffffffffffffffffffffffffffffffffff1673ffffffffffffffffffffffffffffffffffffffff1663e9ecc1ee826040518263ffffffff1660e01b81526004016125219190612dbd565b600060405180830381600087803b15801561253b57600080fd5b505af115801561254f573d6000803e3d6000fd5b50505050600160009054906101000a900473ffffffffffffffffffffffffffffffffffffffff1673ffffffffffffffffffffffffffffffffffffffff166364a197f3600160009054906101000a900473ffffffffffffffffffffffffffffffffffffffff166064600c60049054906101000a900460ff1660646125d29190612f8c565b60ff16856125e09190612efe565b6125ea9190612e9c565b6040518363ffffffff1660e01b8152600401612607929190612c19565b600060405180830381600087803b15801561262157600080fd5b505af1158015612635573d6000803e3d6000fd5b5050505061275d565b600360009054906101000a900473ffffffffffffffffffffffffffffffffffffffff1673ffffffffffffffffffffffffffffffffffffffff166379cc679033856040518363ffffffff1660e01b815260040161269b929190612c19565b600060405180830381600087803b1580156126b557600080fd5b505af11580156126c9573d6000803e3d6000fd5b50505050600160009054906101000a900473ffffffffffffffffffffffffffffffffffffffff1673ffffffffffffffffffffffffffffffffffffffff166364a197f333836040518363ffffffff1660e01b815260040161272a929190612c19565b600060405180830381600087803b15801561274457600080fd5b505af1158015612758573d6000803e3d6000fd5b505050505b60006064600c60049054906101000a900460ff1661277b9190612ecd565b60ff16836127899190612efe565b905060003373ffffffffffffffffffffffffffffffffffffffff16826040516127b190612be9565b60006040518083038185875af1925050503d80600081146127ee576040519150601f19603f3d011682016040523d82523d6000602084013e6127f3565b606091505b5050905080612837576040517f08c379a000000000000000000000000000000000000000000000000000000000815260040161282e90612c5d565b60405180910390fd5b5050505050505050505060016000819055505050565b60095481565b600c60039054906101000a900460ff1681565b600a6020528060005260406000206000915054906101000a900460ff1681565b6000813590506128958161338c565b92915050565b6000813590506128aa816133a3565b92915050565b6000813590506128bf816133ba565b92915050565b6000815190506128d4816133ba565b92915050565b6000602082840312156128ec57600080fd5b60006128fa84828501612886565b91505092915050565b60006020828403121561291557600080fd5b6000612923848285016128b0565b91505092915050565b60006020828403121561293e57600080fd5b600061294c848285016128c5565b91505092915050565b6000806040838503121561296857600080fd5b6000612976858286016128b0565b92505060206129878582860161289b565b9150509250929050565b600080604083850312156129a457600080fd5b60006129b2858286016128b0565b92505060206129c3858286016128b0565b9150509250929050565b600080604083850312156129e057600080fd5b60006129ee858286016128c5565b92505060206129ff858286016128c5565b9150509250929050565b612a1281612fc0565b82525050565b612a2181612fd2565b82525050565b6000612a34601c83612e35565b9150612a3f826130bc565b602082019050919050565b6000612a57602d83612e35565b9150612a62826130e5565b604082019050919050565b6000612a7a602c83612e35565b9150612a8582613134565b604082019050919050565b6000612a9d603783612e35565b9150612aa882613183565b604082019050919050565b6000612ac0602c83612e35565b9150612acb826131d2565b604082019050919050565b6000612ae3602983612e35565b9150612aee82613221565b604082019050919050565b6000612b06600083612e2a565b9150612b1182613270565b600082019050919050565b6000612b29602b83612e35565b9150612b3482613273565b604082019050919050565b6000612b4c601383612e35565b9150612b57826132c2565b602082019050919050565b6000612b6f600f83612e35565b9150612b7a826132eb565b602082019050919050565b6000612b92601f83612e35565b9150612b9d82613314565b602082019050919050565b6000612bb5602d83612e35565b9150612bc08261333d565b604082019050919050565b612bd481612ffe565b82525050565b612be381613008565b82525050565b6000612bf482612af9565b9150819050919050565b6000602082019050612c136000830184612a09565b92915050565b6000604082019050612c2e6000830185612a09565b612c3b6020830184612bcb565b9392505050565b6000602082019050612c576000830184612a18565b92915050565b60006020820190508181036000830152612c7681612a27565b9050919050565b60006020820190508181036000830152612c9681612a4a565b9050919050565b60006020820190508181036000830152612cb681612a6d565b9050919050565b60006020820190508181036000830152612cd681612a90565b9050919050565b60006020820190508181036000830152612cf681612ab3565b9050919050565b60006020820190508181036000830152612d1681612ad6565b9050919050565b60006020820190508181036000830152612d3681612b1c565b9050919050565b60006020820190508181036000830152612d5681612b3f565b9050919050565b60006020820190508181036000830152612d7681612b62565b9050919050565b60006020820190508181036000830152612d9681612b85565b9050919050565b60006020820190508181036000830152612db681612ba8565b9050919050565b6000602082019050612dd26000830184612bcb565b92915050565b6000606082019050612ded6000830186612bcb565b612dfa6020830185612bcb565b612e076040830184612a18565b949350505050565b6000602082019050612e246000830184612bda565b92915050565b600081905092915050565b600082825260208201905092915050565b6000612e5182612ffe565b9150612e5c83612ffe565b9250827fffffffffffffffffffffffffffffffffffffffffffffffffffffffffffffffff03821115612e9157612e9061305e565b5b828201905092915050565b6000612ea782612ffe565b9150612eb283612ffe565b925082612ec257612ec161308d565b5b828204905092915050565b6000612ed882613008565b9150612ee383613008565b925082612ef357612ef261308d565b5b828204905092915050565b6000612f0982612ffe565b9150612f1483612ffe565b9250817fffffffffffffffffffffffffffffffffffffffffffffffffffffffffffffffff0483118215151615612f4d57612f4c61305e565b5b828202905092915050565b6000612f6382612ffe565b9150612f6e83612ffe565b925082821015612f8157612f8061305e565b5b828203905092915050565b6000612f9782613008565b9150612fa283613008565b925082821015612fb557612fb461305e565b5b828203905092915050565b6000612fcb82612fde565b9050919050565b60008115159050919050565b600073ffffffffffffffffffffffffffffffffffffffff82169050919050565b6000819050919050565b600060ff82169050919050565b600061302082612ffe565b91507fffffffffffffffffffffffffffffffffffffffffffffffffffffffffffffffff8214156130535761305261305e565b5b600182019050919050565b7f4e487b7100000000000000000000000000000000000000000000000000000000600052601160045260246000fd5b7f4e487b7100000000000000000000000000000000000000000000000000000000600052601260045260246000fd5b7f476173207061796261636b20686173206265656e206661696c65642e00000000600082015250565b7f5769746864726177616c206661696c7572653a20494352206973206e6f74206d60008201527f6f7265207468616e204d43522e00000000000000000000000000000000000000602082015250565b7f52657061796d656e74206661696c7572653a20494352206973206e6f74206d6f60008201527f7265207468616e204d43522e0000000000000000000000000000000000000000602082015250565b7f54686973206d696e74696e6720697320696e76616c696420626563617573652060008201527f6f6620746f6f206c6172676520626f72726f77696e672e000000000000000000602082015250565b7f5377656570206661696c7572653a20646562742063616e63656c20726573657260008201527f766520697320656d7074792e0000000000000000000000000000000000000000602082015250565b7f49737375616e6365206973206265696e67206c6f636b656420666f722074686960008201527f732073656e6465722e0000000000000000000000000000000000000000000000602082015250565b50565b7f5769746864726177616c206973206265696e67206c6f636b656420666f72207460008201527f6869732073656e6465722e000000000000000000000000000000000000000000602082015250565b7f455448207472616e73666572206661696c656400000000000000000000000000600082015250565b7f7472616e73666572206661696c65640000000000000000000000000000000000600082015250565b7f5265656e7472616e637947756172643a207265656e7472616e742063616c6c00600082015250565b7f526564656d7074696f6e206661696c7572653a20544352206973206e6f74206c60008201527f657373207468616e204d43522e00000000000000000000000000000000000000602082015250565b61339581612fc0565b81146133a057600080fd5b50565b6133ac81612fd2565b81146133b757600080fd5b50565b6133c381612ffe565b81146133ce57600080fd5b5056fea264697066735822122073f70b42ff14175ec77ad8d246afd7dcbb2639406b7bbdeb4e6776f29f112f7864736f6c63430008030033",
  "linkReferences": {},
  "deployedLinkReferences": {}
}