{
  "_format": "hh-sol-artifact-1",
  "contractName": "BulksaleDAO",
  "sourceName": "contracts/BulksaleDAO.sol",
  "abi": [
    {
      "inputs": [
        {
          "internalType": "address",
          "name": "_basicPlugin",
          "type": "address"
        }
      ],
      "stateMutability": "nonpayable",
      "type": "constructor"
    },
    {
      "inputs": [],
      "name": "BasicPlugin",
      "outputs": [
        {
          "internalType": "contract IBasicPlugin",
          "name": "",
          "type": "address"
        }
      ],
      "stateMutability": "view",
      "type": "function"
    },
    {
      "inputs": [],
      "name": "upgrade",
      "outputs": [
        {
          "internalType": "bool",
          "name": "",
          "type": "bool"
        }
      ],
      "stateMutability": "nonpayable",
      "type": "function"
    }
  ],
  "bytecode": "0x608060405234801561001057600080fd5b5060405161057a38038061057a83398181016040528101906100329190610096565b600160008190555080600160006101000a81548173ffffffffffffffffffffffffffffffffffffffff021916908373ffffffffffffffffffffffffffffffffffffffff16021790555050610108565b600081519050610090816100f1565b92915050565b6000602082840312156100a857600080fd5b60006100b684828501610081565b91505092915050565b60006100ca826100d1565b9050919050565b600073ffffffffffffffffffffffffffffffffffffffff82169050919050565b6100fa816100bf565b811461010557600080fd5b50565b610463806101176000396000f3fe608060405234801561001057600080fd5b50600436106100365760003560e01c8063279cc8821461003b578063d55ec69714610059575b600080fd5b610043610077565b6040516100509190610309565b60405180910390f35b61006161009d565b60405161006e91906102ee565b60405180910390f35b600160009054906101000a900473ffffffffffffffffffffffffffffffffffffffff1681565b60006100de6040518060400160405280600e81526020017f6d73672e73656e6465723a20257300000000000000000000000000000000000081525033610185565b600160009054906101000a900473ffffffffffffffffffffffffffffffffffffffff1673ffffffffffffffffffffffffffffffffffffffff1663d55ec6976040518163ffffffff1660e01b8152600401602060405180830381600087803b15801561014857600080fd5b505af115801561015c573d6000803e3d6000fd5b505050506040513d601f19601f82011682018060405250810190610180919061025f565b905090565b61021d828260405160240161019b929190610324565b6040516020818303038152906040527f319af333000000000000000000000000000000000000000000000000000000007bffffffffffffffffffffffffffffffffffffffffffffffffffffffff19166020820180517bffffffffffffffffffffffffffffffffffffffffffffffffffffffff8381831617835250505050610221565b5050565b60008151905060006a636f6e736f6c652e6c6f679050602083016000808483855afa5050505050565b60008151905061025981610416565b92915050565b60006020828403121561027157600080fd5b600061027f8482850161024a565b91505092915050565b61029181610370565b82525050565b6102a081610382565b82525050565b6102af816103ae565b82525050565b60006102c082610354565b6102ca818561035f565b93506102da8185602086016103d2565b6102e381610405565b840191505092915050565b60006020820190506103036000830184610297565b92915050565b600060208201905061031e60008301846102a6565b92915050565b6000604082019050818103600083015261033e81856102b5565b905061034d6020830184610288565b9392505050565b600081519050919050565b600082825260208201905092915050565b600061037b8261038e565b9050919050565b60008115159050919050565b600073ffffffffffffffffffffffffffffffffffffffff82169050919050565b60006103b9826103c0565b9050919050565b60006103cb8261038e565b9050919050565b60005b838110156103f05780820151818401526020810190506103d5565b838111156103ff576000848401525b50505050565b6000601f19601f8301169050919050565b61041f81610382565b811461042a57600080fd5b5056fea264697066735822122011936824552fff64364a76f11456c300cba852809f71d69ef6b1a4481c4d2cd664736f6c63430008030033",
  "linkReferences": {},
  "deployedLinkReferences": {}
}