{
  "_format": "hh-sol-artifact-1",
  "contractName": "BytesLib",
  "sourceName": "contracts/BytesLib.sol",
  "abi": [
    {
      "inputs": [
        {
          "internalType": "bytes",
          "name": "bs",
          "type": "bytes"
        }
      ],
      "name": "toAddress",
      "outputs": [
        {
          "internalType": "address",
          "name": "",
          "type": "address"
        }
      ],
      "stateMutability": "pure",
      "type": "function"
    },
    {
      "inputs": [
        {
          "internalType": "bytes20",
          "name": "b20",
          "type": "bytes20"
        }
      ],
      "name": "toAddress",
      "outputs": [
        {
          "internalType": "address",
          "name": "",
          "type": "address"
        }
      ],
      "stateMutability": "pure",
      "type": "function"
    }
  ],
  "bytecode": "0x610453610053600b82828239805160001a607314610046577f4e487b7100000000000000000000000000000000000000000000000000000000600052600060045260246000fd5b30600052607381538281f3fe73000000000000000000000000000000000000000030146080604052600436106100405760003560e01c80632d888869146100455780637c997c9914610075575b600080fd5b61005f600480360381019061005a91906101c4565b6100a5565b60405161006c9190610237565b60405180910390f35b61008f600480360381019061008a919061019b565b610106565b60405161009c9190610237565b60405180910390f35b600080600090506014835111156100f1576040517f08c379a00000000000000000000000000000000000000000000000000000000081526004016100e890610252565b60405180910390fd5b60008160200184015190508092505050919050565b6000808260601c905060008190508092505050919050565b600061013161012c84610297565b610272565b90508281526020810184848401111561014957600080fd5b610154848285610337565b509392505050565b60008135905061016b81610406565b92915050565b600082601f83011261018257600080fd5b813561019284826020860161011e565b91505092915050565b6000602082840312156101ad57600080fd5b60006101bb8482850161015c565b91505092915050565b6000602082840312156101d657600080fd5b600082013567ffffffffffffffff8111156101f057600080fd5b6101fc84828501610171565b91505092915050565b61020e816102d9565b82525050565b6000610221602a836102c8565b915061022c826103b7565b604082019050919050565b600060208201905061024c6000830184610205565b92915050565b6000602082019050818103600083015261026b81610214565b9050919050565b600061027c61028d565b90506102888282610346565b919050565b6000604051905090565b600067ffffffffffffffff8211156102b2576102b1610377565b5b6102bb826103a6565b9050602081019050919050565b600082825260208201905092915050565b60006102e482610317565b9050919050565b60007fffffffffffffffffffffffffffffffffffffffff00000000000000000000000082169050919050565b600073ffffffffffffffffffffffffffffffffffffffff82169050919050565b82818337600083830152505050565b61034f826103a6565b810181811067ffffffffffffffff8211171561036e5761036d610377565b5b80604052505050565b7f4e487b7100000000000000000000000000000000000000000000000000000000600052604160045260246000fd5b6000601f19601f8301169050919050565b7f6279746573206d6f7265207468616e2033322062797465732063616e6e6f742060008201527f62652075696e7431363000000000000000000000000000000000000000000000602082015250565b61040f816102eb565b811461041a57600080fd5b5056fea26469706673582212205a0f362ae0071341dfbb4e453bc7f0a6e7ff930c04195011f1c2d28ace033d1d64736f6c63430008030033",
  "linkReferences": {},
  "deployedLinkReferences": {}
}