{
  "_format": "hh-sol-artifact-1",
  "contractName": "Pool",
  "sourceName": "contracts/Pool.sol",
  "abi": [
    {
      "anonymous": false,
      "inputs": [
        {
          "indexed": false,
          "internalType": "address",
          "name": "",
          "type": "address"
        },
        {
          "indexed": false,
          "internalType": "uint256",
          "name": "",
          "type": "uint256"
        }
      ],
      "name": "Received",
      "type": "event"
    },
    {
      "inputs": [
        {
          "internalType": "uint256",
          "name": "amount",
          "type": "uint256"
        }
      ],
      "name": "accumulateDividendReserve",
      "outputs": [],
      "stateMutability": "nonpayable",
      "type": "function"
    },
    {
      "inputs": [],
      "name": "debtCancelReserve",
      "outputs": [
        {
          "internalType": "uint256",
          "name": "",
          "type": "uint256"
        }
      ],
      "stateMutability": "view",
      "type": "function"
    },
    {
      "inputs": [
        {
          "internalType": "uint256",
          "name": "amount",
          "type": "uint256"
        }
      ],
      "name": "depositDebtCancelReserve",
      "outputs": [],
      "stateMutability": "nonpayable",
      "type": "function"
    },
    {
      "inputs": [
        {
          "internalType": "uint256",
          "name": "amount",
          "type": "uint256"
        }
      ],
      "name": "depositRedemptionReserve",
      "outputs": [],
      "stateMutability": "nonpayable",
      "type": "function"
    },
    {
      "inputs": [],
      "name": "dividendReserve",
      "outputs": [
        {
          "internalType": "uint256",
          "name": "",
          "type": "uint256"
        }
      ],
      "stateMutability": "view",
      "type": "function"
    },
    {
      "inputs": [
        {
          "internalType": "uint256",
          "name": "amount",
          "type": "uint256"
        }
      ],
      "name": "lockETH",
      "outputs": [],
      "stateMutability": "nonpayable",
      "type": "function"
    },
    {
      "inputs": [],
      "name": "lockedCollateral",
      "outputs": [
        {
          "internalType": "uint256",
          "name": "",
          "type": "uint256"
        }
      ],
      "stateMutability": "view",
      "type": "function"
    },
    {
      "inputs": [],
      "name": "redemptionReserve",
      "outputs": [
        {
          "internalType": "uint256",
          "name": "",
          "type": "uint256"
        }
      ],
      "stateMutability": "view",
      "type": "function"
    },
    {
      "inputs": [
        {
          "internalType": "address",
          "name": "recipient",
          "type": "address"
        },
        {
          "internalType": "uint256",
          "name": "amount",
          "type": "uint256"
        }
      ],
      "name": "sendETH",
      "outputs": [],
      "stateMutability": "nonpayable",
      "type": "function"
    },
    {
      "inputs": [
        {
          "internalType": "uint256",
          "name": "amount",
          "type": "uint256"
        }
      ],
      "name": "useDebtCancelReserve",
      "outputs": [],
      "stateMutability": "nonpayable",
      "type": "function"
    },
    {
      "inputs": [
        {
          "internalType": "uint256",
          "name": "amount",
          "type": "uint256"
        }
      ],
      "name": "useRedemptionReserve",
      "outputs": [],
      "stateMutability": "nonpayable",
      "type": "function"
    },
    {
      "inputs": [
        {
          "internalType": "uint256",
          "name": "amount",
          "type": "uint256"
        }
      ],
      "name": "withdrawDividendReserve",
      "outputs": [],
      "stateMutability": "nonpayable",
      "type": "function"
    },
    {
      "stateMutability": "payable",
      "type": "receive"
    }
  ],
  "bytecode": "0x608060405260008060006101000a81548173ffffffffffffffffffffffffffffffffffffffff021916908373ffffffffffffffffffffffffffffffffffffffff16021790555034801561005157600080fd5b50610c73806100616000396000f3fe6080604052600436106100ab5760003560e01c8063b952cc4a11610064578063b952cc4a146101e8578063be9f99b914610213578063c05fb7241461023e578063e9ecc1ee14610269578063ee9dd35114610292578063fd970789146102bb576100eb565b8063056ea175146100f057806309273f091461011b5780630a86678b1461014457806364a197f31461016d5780638eec6f7b1461019657806391fc0a3a146101bf576100eb565b366100eb577f88a5966d370b9919b20f3e2c13ff65706f196a4e32cc2c12bf57088f8852587433346040516100e1929190610a25565b60405180910390a1005b600080fd5b3480156100fc57600080fd5b506101056102e4565b6040516101129190610a8e565b60405180910390f35b34801561012757600080fd5b50610142600480360381019061013d9190610960565b6102ea565b005b34801561015057600080fd5b5061016b60048036038101906101669190610960565b610394565b005b34801561017957600080fd5b50610194600480360381019061018f9190610924565b61043e565b005b3480156101a257600080fd5b506101bd60048036038101906101b89190610960565b610596565b005b3480156101cb57600080fd5b506101e660048036038101906101e19190610960565b610640565b005b3480156101f457600080fd5b506101fd6106ea565b60405161020a9190610a8e565b60405180910390f35b34801561021f57600080fd5b506102286106f0565b6040516102359190610a8e565b60405180910390f35b34801561024a57600080fd5b506102536106f6565b6040516102609190610a8e565b60405180910390f35b34801561027557600080fd5b50610290600480360381019061028b9190610960565b6106fc565b005b34801561029e57600080fd5b506102b960048036038101906102b49190610960565b6107a6565b005b3480156102c757600080fd5b506102e260048036038101906102dd9190610960565b610850565b005b60025481565b60008054906101000a900473ffffffffffffffffffffffffffffffffffffffff1673ffffffffffffffffffffffffffffffffffffffff163373ffffffffffffffffffffffffffffffffffffffff1614610378576040517f08c379a000000000000000000000000000000000000000000000000000000000815260040161036f90610a4e565b60405180910390fd5b806002600082825461038a9190610ac5565b9250508190555050565b60008054906101000a900473ffffffffffffffffffffffffffffffffffffffff1673ffffffffffffffffffffffffffffffffffffffff163373ffffffffffffffffffffffffffffffffffffffff1614610422576040517f08c379a000000000000000000000000000000000000000000000000000000000815260040161041990610a4e565b60405180910390fd5b80600260008282546104349190610b1b565b9250508190555050565b60008054906101000a900473ffffffffffffffffffffffffffffffffffffffff1673ffffffffffffffffffffffffffffffffffffffff163373ffffffffffffffffffffffffffffffffffffffff16146104cc576040517f08c379a00000000000000000000000000000000000000000000000000000000081526004016104c390610a4e565b60405180910390fd5b80600460008282546104de9190610b1b565b9250508190555060008273ffffffffffffffffffffffffffffffffffffffff168260405161050b90610a10565b60006040518083038185875af1925050503d8060008114610548576040519150601f19603f3d011682016040523d82523d6000602084013e61054d565b606091505b5050905080610591576040517f08c379a000000000000000000000000000000000000000000000000000000000815260040161058890610a6e565b60405180910390fd5b505050565b60008054906101000a900473ffffffffffffffffffffffffffffffffffffffff1673ffffffffffffffffffffffffffffffffffffffff163373ffffffffffffffffffffffffffffffffffffffff1614610624576040517f08c379a000000000000000000000000000000000000000000000000000000000815260040161061b90610a4e565b60405180910390fd5b80600460008282546106369190610ac5565b9250508190555050565b60008054906101000a900473ffffffffffffffffffffffffffffffffffffffff1673ffffffffffffffffffffffffffffffffffffffff163373ffffffffffffffffffffffffffffffffffffffff16146106ce576040517f08c379a00000000000000000000000000000000000000000000000000000000081526004016106c590610a4e565b60405180910390fd5b80600160008282546106e09190610b1b565b9250508190555050565b60045481565b60035481565b60015481565b60008054906101000a900473ffffffffffffffffffffffffffffffffffffffff1673ffffffffffffffffffffffffffffffffffffffff163373ffffffffffffffffffffffffffffffffffffffff161461078a576040517f08c379a000000000000000000000000000000000000000000000000000000000815260040161078190610a4e565b60405180910390fd5b806003600082825461079c9190610ac5565b9250508190555050565b60008054906101000a900473ffffffffffffffffffffffffffffffffffffffff1673ffffffffffffffffffffffffffffffffffffffff163373ffffffffffffffffffffffffffffffffffffffff1614610834576040517f08c379a000000000000000000000000000000000000000000000000000000000815260040161082b90610a4e565b60405180910390fd5b80600160008282546108469190610ac5565b9250508190555050565b60008054906101000a900473ffffffffffffffffffffffffffffffffffffffff1673ffffffffffffffffffffffffffffffffffffffff163373ffffffffffffffffffffffffffffffffffffffff16146108de576040517f08c379a00000000000000000000000000000000000000000000000000000000081526004016108d590610a4e565b60405180910390fd5b80600360008282546108f09190610b1b565b9250508190555050565b60008135905061090981610c0f565b92915050565b60008135905061091e81610c26565b92915050565b6000806040838503121561093757600080fd5b6000610945858286016108fa565b92505060206109568582860161090f565b9150509250929050565b60006020828403121561097257600080fd5b60006109808482850161090f565b91505092915050565b61099281610b4f565b82525050565b60006109a5601c83610ab4565b91506109b082610bba565b602082019050919050565b60006109c8600083610aa9565b91506109d382610be3565b600082019050919050565b60006109eb600f83610ab4565b91506109f682610be6565b602082019050919050565b610a0a81610b81565b82525050565b6000610a1b826109bb565b9150819050919050565b6000604082019050610a3a6000830185610989565b610a476020830184610a01565b9392505050565b60006020820190508181036000830152610a6781610998565b9050919050565b60006020820190508181036000830152610a87816109de565b9050919050565b6000602082019050610aa36000830184610a01565b92915050565b600081905092915050565b600082825260208201905092915050565b6000610ad082610b81565b9150610adb83610b81565b9250827fffffffffffffffffffffffffffffffffffffffffffffffffffffffffffffffff03821115610b1057610b0f610b8b565b5b828201905092915050565b6000610b2682610b81565b9150610b3183610b81565b925082821015610b4457610b43610b8b565b5b828203905092915050565b6000610b5a82610b61565b9050919050565b600073ffffffffffffffffffffffffffffffffffffffff82169050919050565b6000819050919050565b7f4e487b7100000000000000000000000000000000000000000000000000000000600052601160045260246000fd5b7f596f7520617265206e6f742059616d61746f20636f6e74726163742e00000000600082015250565b50565b7f7472616e73666572206661696c65640000000000000000000000000000000000600082015250565b610c1881610b4f565b8114610c2357600080fd5b50565b610c2f81610b81565b8114610c3a57600080fd5b5056fea264697066735822122018054e3304e31745e4a9f68c7b83e6989c34d3407ea50436789fcd61e9e0ce3e64736f6c63430008030033",
  "linkReferences": {},
  "deployedLinkReferences": {}
}