{
  "_format": "hh-sol-artifact-1",
  "contractName": "BulksaleV1",
  "sourceName": "contracts/BulksaleV1.sol",
  "abi": [
    {
      "anonymous": false,
      "inputs": [
        {
          "indexed": true,
          "internalType": "address",
          "name": "account",
          "type": "address"
        },
        {
          "indexed": false,
          "internalType": "uint256",
          "name": "userShare",
          "type": "uint256"
        },
        {
          "indexed": false,
          "internalType": "uint256",
          "name": "erc20allocation",
          "type": "uint256"
        }
      ],
      "name": "Claimed",
      "type": "event"
    },
    {
      "anonymous": false,
      "inputs": [
        {
          "indexed": true,
          "internalType": "bytes",
          "name": "abiBytes",
          "type": "bytes"
        }
      ],
      "name": "Initialized",
      "type": "event"
    },
    {
      "anonymous": false,
      "inputs": [
        {
          "indexed": true,
          "internalType": "address",
          "name": "account",
          "type": "address"
        },
        {
          "indexed": false,
          "internalType": "uint256",
          "name": "amount",
          "type": "uint256"
        }
      ],
      "name": "Received",
      "type": "event"
    },
    {
      "anonymous": false,
      "inputs": [
        {
          "indexed": true,
          "internalType": "address",
          "name": "sender",
          "type": "address"
        },
        {
          "indexed": false,
          "internalType": "uint256",
          "name": "balance",
          "type": "uint256"
        }
      ],
      "name": "WithdrawnAfterLockDuration",
      "type": "event"
    },
    {
      "anonymous": false,
      "inputs": [
        {
          "indexed": true,
          "internalType": "address",
          "name": "sender",
          "type": "address"
        },
        {
          "indexed": false,
          "internalType": "uint256",
          "name": "balance",
          "type": "uint256"
        }
      ],
      "name": "WithdrawnOnFailed",
      "type": "event"
    },
    {
      "inputs": [
        {
          "internalType": "address",
          "name": "contributor",
          "type": "address"
        },
        {
          "internalType": "address",
          "name": "recipient",
          "type": "address"
        }
      ],
      "name": "claim",
      "outputs": [],
      "stateMutability": "nonpayable",
      "type": "function"
    },
    {
      "inputs": [],
      "name": "closingAt",
      "outputs": [
        {
          "internalType": "uint256",
          "name": "",
          "type": "uint256"
        }
      ],
      "stateMutability": "view",
      "type": "function"
    },
    {
      "inputs": [],
      "name": "erc20onsale",
      "outputs": [
        {
          "internalType": "contract IERC20",
          "name": "",
          "type": "address"
        }
      ],
      "stateMutability": "view",
      "type": "function"
    },
    {
      "inputs": [],
      "name": "expirationDuration",
      "outputs": [
        {
          "internalType": "uint256",
          "name": "",
          "type": "uint256"
        }
      ],
      "stateMutability": "view",
      "type": "function"
    },
    {
      "inputs": [],
      "name": "factory",
      "outputs": [
        {
          "internalType": "address",
          "name": "",
          "type": "address"
        }
      ],
      "stateMutability": "view",
      "type": "function"
    },
    {
      "inputs": [],
      "name": "feeRatePerMil",
      "outputs": [
        {
          "internalType": "uint256",
          "name": "",
          "type": "uint256"
        }
      ],
      "stateMutability": "view",
      "type": "function"
    },
    {
      "inputs": [
        {
          "internalType": "bytes",
          "name": "abiBytes",
          "type": "bytes"
        }
      ],
      "name": "initialize",
      "outputs": [
        {
          "internalType": "bool",
          "name": "",
          "type": "bool"
        }
      ],
      "stateMutability": "nonpayable",
      "type": "function"
    },
    {
      "inputs": [],
      "name": "lockDuration",
      "outputs": [
        {
          "internalType": "uint256",
          "name": "",
          "type": "uint256"
        }
      ],
      "stateMutability": "view",
      "type": "function"
    },
    {
      "inputs": [],
      "name": "minimalProvideAmount",
      "outputs": [
        {
          "internalType": "uint256",
          "name": "",
          "type": "uint256"
        }
      ],
      "stateMutability": "view",
      "type": "function"
    },
    {
      "inputs": [],
      "name": "owner",
      "outputs": [
        {
          "internalType": "address",
          "name": "",
          "type": "address"
        }
      ],
      "stateMutability": "view",
      "type": "function"
    },
    {
      "inputs": [
        {
          "internalType": "address",
          "name": "",
          "type": "address"
        }
      ],
      "name": "provided",
      "outputs": [
        {
          "internalType": "uint256",
          "name": "",
          "type": "uint256"
        }
      ],
      "stateMutability": "view",
      "type": "function"
    },
    {
      "inputs": [],
      "name": "startingAt",
      "outputs": [
        {
          "internalType": "uint256",
          "name": "",
          "type": "uint256"
        }
      ],
      "stateMutability": "view",
      "type": "function"
    },
    {
      "inputs": [],
      "name": "totalDistributeAmount",
      "outputs": [
        {
          "internalType": "uint256",
          "name": "",
          "type": "uint256"
        }
      ],
      "stateMutability": "view",
      "type": "function"
    },
    {
      "inputs": [],
      "name": "totalProvided",
      "outputs": [
        {
          "internalType": "uint256",
          "name": "",
          "type": "uint256"
        }
      ],
      "stateMutability": "view",
      "type": "function"
    },
    {
      "inputs": [],
      "name": "withdrawERC20Onsale",
      "outputs": [],
      "stateMutability": "nonpayable",
      "type": "function"
    },
    {
      "inputs": [],
      "name": "withdrawProvidedETH",
      "outputs": [],
      "stateMutability": "nonpayable",
      "type": "function"
    },
    {
      "inputs": [],
      "name": "withdrawUnclaimedERC20OnSale",
      "outputs": [],
      "stateMutability": "nonpayable",
      "type": "function"
    },
    {
      "stateMutability": "payable",
      "type": "receive"
    }
  ],
  "bytecode": "0x60806040526000600160006101000a81548160ff0219169083151502179055506000600b5534801561003057600080fd5b506001600081905550612da1806100486000396000f3fe6080604052600436106101025760003560e01c80638d97599211610095578063b86c0e1f11610064578063b86c0e1f14610453578063c45a01551461047e578063d2a31c90146104a9578063dccd4315146104d4578063e43608d8146104ff57610250565b80638d975992146103a95780638da5cb5b146103d45780639ddb9ee1146103ff578063a6e00ca51461043c57610250565b80632f205906116100d15780632f205906146102ff578063400d3d9d14610316578063439fab91146103415780637ee05a3e1461037e57610250565b806302e3cb0b14610255578063045544431461028057806311a4c03a146102ab57806321c0b342146102d657610250565b366102505742600254111561014c576040517f08c379a0000000000000000000000000000000000000000000000000000000008152600401610143906122ed565b60405180910390fd5b600354421115610191576040517f08c379a00000000000000000000000000000000000000000000000000000000081526004016101889061242d565b60405180910390fd5b34600b60008282546101a39190612577565b9250508190555034600c60003373ffffffffffffffffffffffffffffffffffffffff1673ffffffffffffffffffffffffffffffffffffffff16815260200190815260200160002060008282546101f99190612577565b925050819055503373ffffffffffffffffffffffffffffffffffffffff167f88a5966d370b9919b20f3e2c13ff65706f196a4e32cc2c12bf57088f8852587434604051610246919061248d565b60405180910390a2005b600080fd5b34801561026157600080fd5b5061026a610516565b604051610277919061248d565b60405180910390f35b34801561028c57600080fd5b5061029561051c565b6040516102a2919061248d565b60405180910390f35b3480156102b757600080fd5b506102c0610522565b6040516102cd919061248d565b60405180910390f35b3480156102e257600080fd5b506102fd60048036038101906102f89190611c07565b610528565b005b34801561030b57600080fd5b50610314610b17565b005b34801561032257600080fd5b5061032b610e20565b604051610338919061248d565b60405180910390f35b34801561034d57600080fd5b5061036860048036038101906103639190611c6c565b610e26565b6040516103759190612157565b60405180910390f35b34801561038a57600080fd5b506103936112de565b6040516103a0919061248d565b60405180910390f35b3480156103b557600080fd5b506103be6112e4565b6040516103cb919061248d565b60405180910390f35b3480156103e057600080fd5b506103e96112ea565b6040516103f69190612113565b60405180910390f35b34801561040b57600080fd5b5061042660048036038101906104219190611bde565b611310565b604051610433919061248d565b60405180910390f35b34801561044857600080fd5b50610451611328565b005b34801561045f57600080fd5b5061046861166a565b604051610475919061248d565b60405180910390f35b34801561048a57600080fd5b50610493611670565b6040516104a09190612113565b60405180910390f35b3480156104b557600080fd5b506104be611688565b6040516104cb9190612172565b60405180910390f35b3480156104e057600080fd5b506104e96116ae565b6040516104f6919061248d565b60405180910390f35b34801561050b57600080fd5b506105146116b4565b005b600b5481565b60065481565b60075481565b6002600054141561056e576040517f08c379a0000000000000000000000000000000000000000000000000000000008152600401610565906123ed565b60405180910390fd5b600260008190555060035442116105ba576040517f08c379a00000000000000000000000000000000000000000000000000000000081526004016105b19061228d565b60405180910390fd5b6000600c60008473ffffffffffffffffffffffffffffffffffffffff1673ffffffffffffffffffffffffffffffffffffffff168152602001908152602001600020541161063c576040517f08c379a00000000000000000000000000000000000000000000000000000000081526004016106339061222d565b60405180910390fd5b6000600c60008473ffffffffffffffffffffffffffffffffffffffff1673ffffffffffffffffffffffffffffffffffffffff1681526020019081526020016000205490506000600c60008573ffffffffffffffffffffffffffffffffffffffff1673ffffffffffffffffffffffffffffffffffffffff1681526020019081526020016000208190555060006106d682600b546004546119fd565b905060006007546002546106ea9190612577565b421090506000600554600b54101590506000808414905082801561070b5750815b8015610715575080155b156109a6578673ffffffffffffffffffffffffffffffffffffffff163373ffffffffffffffffffffffffffffffffffffffff1614801561078057508573ffffffffffffffffffffffffffffffffffffffff168773ffffffffffffffffffffffffffffffffffffffff16145b806107ee57508673ffffffffffffffffffffffffffffffffffffffff163373ffffffffffffffffffffffffffffffffffffffff16141580156107ed57508573ffffffffffffffffffffffffffffffffffffffff168773ffffffffffffffffffffffffffffffffffffffff16145b5b8061085c57508673ffffffffffffffffffffffffffffffffffffffff163373ffffffffffffffffffffffffffffffffffffffff1614801561085b57508573ffffffffffffffffffffffffffffffffffffffff168773ffffffffffffffffffffffffffffffffffffffff1614155b5b1561096657600a60009054906101000a900473ffffffffffffffffffffffffffffffffffffffff1673ffffffffffffffffffffffffffffffffffffffff1663a9059cbb87866040518363ffffffff1660e01b81526004016108be92919061212e565b602060405180830381600087803b1580156108d857600080fd5b505af11580156108ec573d6000803e3d6000fd5b505050506040513d601f19601f820116820180604052508101906109109190611c43565b508573ffffffffffffffffffffffffffffffffffffffff167f987d620f307ff6b94d58743cb7a7509f24071586a77759b77c2d4e29f75a2f9a86866040516109599291906124d1565b60405180910390a26109a1565b6040517f08c379a0000000000000000000000000000000000000000000000000000000008152600401610998906122cd565b60405180910390fd5b610b06565b8280156109b1575081155b806109c257508280156109c15750805b5b15610aca5760008773ffffffffffffffffffffffffffffffffffffffff16866040516109ed906120fe565b60006040518083038185875af1925050503d8060008114610a2a576040519150601f19603f3d011682016040523d82523d6000602084013e610a2f565b606091505b5050905080610a73576040517f08c379a0000000000000000000000000000000000000000000000000000000008152600401610a6a906123cd565b60405180910390fd5b8773ffffffffffffffffffffffffffffffffffffffff167f987d620f307ff6b94d58743cb7a7509f24071586a77759b77c2d4e29f75a2f9a876000604051610abc9291906124a8565b60405180910390a250610b05565b6040517f08c379a0000000000000000000000000000000000000000000000000000000008152600401610afc9061244d565b60405180910390fd5b5b505050505060016000819055505050565b600860009054906101000a900473ffffffffffffffffffffffffffffffffffffffff1673ffffffffffffffffffffffffffffffffffffffff163373ffffffffffffffffffffffffffffffffffffffff1614610ba7576040517f08c379a0000000000000000000000000000000000000000000000000000000008152600401610b9e906123ad565b60405180910390fd5b60026000541415610bed576040517f08c379a0000000000000000000000000000000000000000000000000000000008152600401610be4906123ed565b60405180910390fd5b600260008190555042600654600354610c069190612577565b10610c46576040517f08c379a0000000000000000000000000000000000000000000000000000000008152600401610c3d9061220d565b60405180910390fd5b6000600a60009054906101000a900473ffffffffffffffffffffffffffffffffffffffff1673ffffffffffffffffffffffffffffffffffffffff166370a08231306040518263ffffffff1660e01b8152600401610ca39190612113565b60206040518083038186803b158015610cbb57600080fd5b505afa158015610ccf573d6000803e3d6000fd5b505050506040513d601f19601f82011682018060405250810190610cf39190611cd7565b9050600a60009054906101000a900473ffffffffffffffffffffffffffffffffffffffff1673ffffffffffffffffffffffffffffffffffffffff1663a9059cbb600860009054906101000a900473ffffffffffffffffffffffffffffffffffffffff16836040518363ffffffff1660e01b8152600401610d7492919061212e565b602060405180830381600087803b158015610d8e57600080fd5b505af1158015610da2573d6000803e3d6000fd5b505050506040513d601f19601f82011682018060405250810190610dc69190611c43565b503373ffffffffffffffffffffffffffffffffffffffff167f4e526043998f5e8eb845e3be9675c2b21a1b24bbce088eea5501d4ae54b4824b82604051610e0d919061248d565b60405180910390a2506001600081905550565b60095481565b6000600160009054906101000a900460ff1615610e78576040517f08c379a0000000000000000000000000000000000000000000000000000000008152600401610e6f9061238d565b60405180910390fd5b735fbdb2315678afecb367f032d93f642f64180aa373ffffffffffffffffffffffffffffffffffffffff163373ffffffffffffffffffffffffffffffffffffffff1614610efa576040517f08c379a0000000000000000000000000000000000000000000000000000000008152600401610ef19061218d565b60405180910390fd5b600082806020019051810190610f109190611cad565b90508060200151421115610f59576040517f08c379a0000000000000000000000000000000000000000000000000000000008152600401610f50906121ed565b60405180910390fd5b6201518081604001511015610fa3576040517f08c379a0000000000000000000000000000000000000000000000000000000008152600401610f9a906121cd565b60405180910390fd5b60008160a0015111610fea576040517f08c379a0000000000000000000000000000000000000000000000000000000008152600401610fe19061232d565b60405180910390fd5b60008160c0015111611031576040517f08c379a0000000000000000000000000000000000000000000000000000000008152600401611028906121ad565b60405180910390fd5b600081606001511015611079576040517f08c379a00000000000000000000000000000000000000000000000000000000081526004016110709061246d565b60405180910390fd5b62278d00816080015110156110c3576040517f08c379a00000000000000000000000000000000000000000000000000000000081526004016110ba9061240d565b60405180910390fd5b600073ffffffffffffffffffffffffffffffffffffffff168160e0015173ffffffffffffffffffffffffffffffffffffffff161415611137576040517f08c379a000000000000000000000000000000000000000000000000000000000815260040161112e906122ad565b60405180910390fd5b80610100015160011115801561115257506064816101000151105b611191576040517f08c379a00000000000000000000000000000000000000000000000000000000081526004016111889061230d565b60405180910390fd5b8060000151600a60006101000a81548173ffffffffffffffffffffffffffffffffffffffff021916908373ffffffffffffffffffffffffffffffffffffffff1602179055508060200151600281905550806040015181602001516111f59190612577565b6003819055508060a001516004819055508060c00151600581905550806060015160068190555080608001516007819055508060e00151600860006101000a81548173ffffffffffffffffffffffffffffffffffffffff021916908373ffffffffffffffffffffffffffffffffffffffff1602179055508061010001516009819055508260405161128691906120e7565b60405180910390207f5e399709a9ff1709f6f6be7268c8e5c3eeaa9da9cd9797e78f07ef287c3717fe60405160405180910390a260018060006101000a81548160ff0219169083151502179055506001915050919050565b60045481565b60055481565b600860009054906101000a900473ffffffffffffffffffffffffffffffffffffffff1681565b600c6020528060005260406000206000915090505481565b600860009054906101000a900473ffffffffffffffffffffffffffffffffffffffff1673ffffffffffffffffffffffffffffffffffffffff163373ffffffffffffffffffffffffffffffffffffffff16146113b8576040517f08c379a00000000000000000000000000000000000000000000000000000000081526004016113af906123ad565b60405180910390fd5b600260005414156113fe576040517f08c379a00000000000000000000000000000000000000000000000000000000081526004016113f5906123ed565b60405180910390fd5b6002600081905550426003541061144a576040517f08c379a00000000000000000000000000000000000000000000000000000000081526004016114419061234d565b60405180910390fd5b600554600b5410611490576040517f08c379a00000000000000000000000000000000000000000000000000000000081526004016114879061224d565b60405180910390fd5b6000600a60009054906101000a900473ffffffffffffffffffffffffffffffffffffffff1673ffffffffffffffffffffffffffffffffffffffff166370a08231306040518263ffffffff1660e01b81526004016114ed9190612113565b60206040518083038186803b15801561150557600080fd5b505afa158015611519573d6000803e3d6000fd5b505050506040513d601f19601f8201168201806040525081019061153d9190611cd7565b9050600a60009054906101000a900473ffffffffffffffffffffffffffffffffffffffff1673ffffffffffffffffffffffffffffffffffffffff1663a9059cbb600860009054906101000a900473ffffffffffffffffffffffffffffffffffffffff16836040518363ffffffff1660e01b81526004016115be92919061212e565b602060405180830381600087803b1580156115d857600080fd5b505af11580156115ec573d6000803e3d6000fd5b505050506040513d601f19601f820116820180604052508101906116109190611c43565b503373ffffffffffffffffffffffffffffffffffffffff167f6ad78535132556a5932c94d741a9ea143e95079b9f556207c27b43cfd8e164e282604051611657919061248d565b60405180910390a2506001600081905550565b60035481565b735fbdb2315678afecb367f032d93f642f64180aa381565b600a60009054906101000a900473ffffffffffffffffffffffffffffffffffffffff1681565b60025481565b600860009054906101000a900473ffffffffffffffffffffffffffffffffffffffff1673ffffffffffffffffffffffffffffffffffffffff163373ffffffffffffffffffffffffffffffffffffffff1614611744576040517f08c379a000000000000000000000000000000000000000000000000000000000815260040161173b906123ad565b60405180910390fd5b6002600054141561178a576040517f08c379a0000000000000000000000000000000000000000000000000000000008152600401611781906123ed565b60405180910390fd5b600260008190555042600354106117d6576040517f08c379a00000000000000000000000000000000000000000000000000000000081526004016117cd9061236d565b60405180910390fd5b600554600b54101561181d576040517f08c379a00000000000000000000000000000000000000000000000000000000081526004016118149061226d565b60405180910390fd5b6000600860009054906101000a900473ffffffffffffffffffffffffffffffffffffffff1673ffffffffffffffffffffffffffffffffffffffff166103e86009546103e861186b9190612658565b4761187691906125fe565b61188091906125cd565b60405161188c906120fe565b60006040518083038185875af1925050503d80600081146118c9576040519150601f19603f3d011682016040523d82523d6000602084013e6118ce565b606091505b5050905080611912576040517f08c379a0000000000000000000000000000000000000000000000000000000008152600401611909906123cd565b60405180910390fd5b6000735fbdb2315678afecb367f032d93f642f64180aa373ffffffffffffffffffffffffffffffffffffffff166103e86009544761195091906125fe565b61195a91906125cd565b6161a89060405161196a906120fe565b600060405180830381858888f193505050503d80600081146119a8576040519150601f19603f3d011682016040523d82523d6000602084013e6119ad565b606091505b50509050806119f1576040517f08c379a00000000000000000000000000000000000000000000000000000000081526004016119e8906123cd565b60405180910390fd5b50506001600081905550565b600082821015611a2557828285611a1491906125fe565b611a1e91906125cd565b9050611a3f565b838383611a3291906125cd565b611a3c91906125fe565b90505b9392505050565b6000611a59611a548461251f565b6124fa565b905082815260208101848484011115611a7157600080fd5b611a7c84828561270a565b509392505050565b600081359050611a9381612d26565b92915050565b600081519050611aa881612d26565b92915050565b600081519050611abd81612d3d565b92915050565b600082601f830112611ad457600080fd5b8135611ae4848260208601611a46565b91505092915050565b60006101208284031215611b0057600080fd5b611b0b6101206124fa565b90506000611b1b84828501611a99565b6000830152506020611b2f84828501611bc9565b6020830152506040611b4384828501611bc9565b6040830152506060611b5784828501611bc9565b6060830152506080611b6b84828501611bc9565b60808301525060a0611b7f84828501611bc9565b60a08301525060c0611b9384828501611bc9565b60c08301525060e0611ba784828501611a99565b60e083015250610100611bbc84828501611bc9565b6101008301525092915050565b600081519050611bd881612d54565b92915050565b600060208284031215611bf057600080fd5b6000611bfe84828501611a84565b91505092915050565b60008060408385031215611c1a57600080fd5b6000611c2885828601611a84565b9250506020611c3985828601611a84565b9150509250929050565b600060208284031215611c5557600080fd5b6000611c6384828501611aae565b91505092915050565b600060208284031215611c7e57600080fd5b600082013567ffffffffffffffff811115611c9857600080fd5b611ca484828501611ac3565b91505092915050565b60006101208284031215611cc057600080fd5b6000611cce84828501611aed565b91505092915050565b600060208284031215611ce957600080fd5b6000611cf784828501611bc9565b91505092915050565b611d098161268c565b82525050565b611d188161269e565b82525050565b6000611d2982612550565b611d33818561255b565b9350611d43818560208601612719565b80840191505092915050565b611d58816126d4565b82525050565b611d67816126f8565b82525050565b6000611d7a601883612566565b9150611d858261281b565b602082019050919050565b6000611d9d602183612566565b9150611da882612844565b604082019050919050565b6000611dc0601b83612566565b9150611dcb82612893565b602082019050919050565b6000611de3602083612566565b9150611dee826128bc565b602082019050919050565b6000611e06601b83612566565b9150611e11826128e5565b602082019050919050565b6000611e29602083612566565b9150611e348261290e565b602082019050919050565b6000611e4c602683612566565b9150611e5782612937565b604082019050919050565b6000611e6f602a83612566565b9150611e7a82612986565b604082019050919050565b6000611e92602583612566565b9150611e9d826129d5565b604082019050919050565b6000611eb5601383612566565b9150611ec082612a24565b602082019050919050565b6000611ed8603a83612566565b9150611ee382612a4d565b604082019050919050565b6000611efb602083612566565b9150611f0682612a9c565b602082019050919050565b6000611f1e601883612566565b9150611f2982612ac5565b602082019050919050565b6000611f41601e83612566565b9150611f4c82612aee565b602082019050919050565b6000611f64601e83612566565b9150611f6f82612b17565b602082019050919050565b6000611f87602483612566565b9150611f9282612b40565b604082019050919050565b6000611faa60008361255b565b9150611fb582612b8f565b600082019050919050565b6000611fcd602a83612566565b9150611fd882612b92565b604082019050919050565b6000611ff0601683612566565b9150611ffb82612be1565b602082019050919050565b6000612013600f83612566565b915061201e82612c0a565b602082019050919050565b6000612036601f83612566565b915061204182612c33565b602082019050919050565b6000612059602d83612566565b915061206482612c5c565b604082019050919050565b600061207c601e83612566565b915061208782612cab565b602082019050919050565b600061209f602083612566565b91506120aa82612cd4565b602082019050919050565b60006120c2601883612566565b91506120cd82612cfd565b602082019050919050565b6120e1816126ca565b82525050565b60006120f38284611d1e565b915081905092915050565b600061210982611f9d565b9150819050919050565b60006020820190506121286000830184611d00565b92915050565b60006040820190506121436000830185611d00565b61215060208301846120d8565b9392505050565b600060208201905061216c6000830184611d0f565b92915050565b60006020820190506121876000830184611d4f565b92915050565b600060208201905081810360008301526121a681611d6d565b9050919050565b600060208201905081810360008301526121c681611d90565b9050919050565b600060208201905081810360008301526121e681611db3565b9050919050565b6000602082019050818103600083015261220681611dd6565b9050919050565b6000602082019050818103600083015261222681611df9565b9050919050565b6000602082019050818103600083015261224681611e1c565b9050919050565b6000602082019050818103600083015261226681611e3f565b9050919050565b6000602082019050818103600083015261228681611e62565b9050919050565b600060208201905081810360008301526122a681611e85565b9050919050565b600060208201905081810360008301526122c681611ea8565b9050919050565b600060208201905081810360008301526122e681611ecb565b9050919050565b6000602082019050818103600083015261230681611eee565b9050919050565b6000602082019050818103600083015261232681611f11565b9050919050565b6000602082019050818103600083015261234681611f34565b9050919050565b6000602082019050818103600083015261236681611f57565b9050919050565b6000602082019050818103600083015261238681611f7a565b9050919050565b600060208201905081810360008301526123a681611fc0565b9050919050565b600060208201905081810360008301526123c681611fe3565b9050919050565b600060208201905081810360008301526123e681612006565b9050919050565b6000602082019050818103600083015261240681612029565b9050919050565b600060208201905081810360008301526124268161204c565b9050919050565b600060208201905081810360008301526124468161206f565b9050919050565b6000602082019050818103600083015261246681612092565b9050919050565b60006020820190508181036000830152612486816120b5565b9050919050565b60006020820190506124a260008301846120d8565b92915050565b60006040820190506124bd60008301856120d8565b6124ca6020830184611d5e565b9392505050565b60006040820190506124e660008301856120d8565b6124f360208301846120d8565b9392505050565b6000612504612515565b9050612510828261274c565b919050565b6000604051905090565b600067ffffffffffffffff82111561253a576125396127db565b5b6125438261280a565b9050602081019050919050565b600081519050919050565b600081905092915050565b600082825260208201905092915050565b6000612582826126ca565b915061258d836126ca565b9250827fffffffffffffffffffffffffffffffffffffffffffffffffffffffffffffffff038211156125c2576125c161277d565b5b828201905092915050565b60006125d8826126ca565b91506125e3836126ca565b9250826125f3576125f26127ac565b5b828204905092915050565b6000612609826126ca565b9150612614836126ca565b9250817fffffffffffffffffffffffffffffffffffffffffffffffffffffffffffffffff048311821515161561264d5761264c61277d565b5b828202905092915050565b6000612663826126ca565b915061266e836126ca565b9250828210156126815761268061277d565b5b828203905092915050565b6000612697826126aa565b9050919050565b60008115159050919050565b600073ffffffffffffffffffffffffffffffffffffffff82169050919050565b6000819050919050565b60006126df826126e6565b9050919050565b60006126f1826126aa565b9050919050565b6000612703826126ca565b9050919050565b82818337600083830152505050565b60005b8381101561273757808201518184015260208101905061271c565b83811115612746576000848401525b50505050565b6127558261280a565b810181811067ffffffffffffffff82111715612774576127736127db565b5b80604052505050565b7f4e487b7100000000000000000000000000000000000000000000000000000000600052601160045260246000fd5b7f4e487b7100000000000000000000000000000000000000000000000000000000600052601260045260246000fd5b7f4e487b7100000000000000000000000000000000000000000000000000000000600052604160045260246000fd5b6000601f19601f8301169050919050565b7f596f7520617265206e6f742074686520466163746f72792e0000000000000000600082015250565b7f6d696e696d616c2070726f7669646520616d6f756e7420697320696e76616c6960008201527f6400000000000000000000000000000000000000000000000000000000000000602082015250565b7f6576656e74206475726174696f6e20697320746f6f2073686f72740000000000600082015250565b7f7374617274696e674174206d75737420626520696e2074686520667574757265600082015250565b7f5769746864726177616c20756e617661696c61626c65207965742e0000000000600082015250565b7f596f7520646f6e2774206861766520616e7920636f6e747269627574696f6e2e600082015250565b7f54686520726571756972656420616d6f756e7420686173206265656e2070726f60008201527f7669646564210000000000000000000000000000000000000000000000000000602082015250565b7f54686520726571756972656420616d6f756e7420686173206e6f74206265656e60008201527f2070726f76696465642100000000000000000000000000000000000000000000602082015250565b7f4561726c7920746f20636c61696d2e2053616c65206973206e6f742066696e6960008201527f736865642e000000000000000000000000000000000000000000000000000000602082015250565b7f6f776e6572206d75737420626520746865726500000000000000000000000000600082015250565b7f73656e64657220697320636c61696d696e6720736f6d656f6e65206f7468657260008201527f27732066756e6420666f7220736f6d656f6e65206f746865722e000000000000602082015250565b7f546865206f66666572696e6720686173206e6f74207374617274656420796574600082015250565b7f6665652072617465206973206f7574206f662072616e67650000000000000000600082015250565b7f646973747269627574696f6e20616d6f756e7420697320696e76616c69640000600082015250565b7f546865206f66666572696e67206d75737420626520636f6d706c657465640000600082015250565b7f546865206f66666572696e67206d7573742062652066696e697368656420666960008201527f7273742e00000000000000000000000000000000000000000000000000000000602082015250565b50565b7f5468697320636f6e74726163742068617320616c7265616479206265656e206960008201527f6e697469616c697a656400000000000000000000000000000000000000000000602082015250565b7f596f7520617265206e6f7420746865206f776e65722e00000000000000000000600082015250565b7f7472616e73666572206661696c65640000000000000000000000000000000000600082015250565b7f5265656e7472616e637947756172643a207265656e7472616e742063616c6c00600082015250565b7f65787069726174696f6e206475726174696f6e206d757374206265206d6f726560008201527f207468616e203330206461797300000000000000000000000000000000000000602082015250565b7f546865206f66666572696e672068617320616c726561647920656e6465640000600082015250565b7f436c61696d61626c65207465726d20686173206265656e20657870697265642e600082015250565b7f6c6f636b206475726174696f6e20697320696e76616c69640000000000000000600082015250565b612d2f8161268c565b8114612d3a57600080fd5b50565b612d468161269e565b8114612d5157600080fd5b50565b612d5d816126ca565b8114612d6857600080fd5b5056fea264697066735822122091271020693a8c0fa0815e56ed80723130e94b9376ff5d506c43e7849e71143e64736f6c63430008030033",
  "linkReferences": {},
  "deployedLinkReferences": {}
}