{
  "address": "0x4a237405A62a456401f4178bf8d14111CBAEaAF3",
  "abi": [
    {
      "inputs": [
        {
          "internalType": "address",
          "name": "initialOwner",
          "type": "address"
        }
      ],
      "stateMutability": "nonpayable",
      "type": "constructor"
    },
    {
      "anonymous": false,
      "inputs": [
        {
          "indexed": true,
          "internalType": "address",
          "name": "sender",
          "type": "address"
        },
        {
          "indexed": true,
          "internalType": "string",
          "name": "templateName",
          "type": "string"
        },
        {
          "indexed": true,
          "internalType": "address",
          "name": "deployedAddr",
          "type": "address"
        },
        {
          "indexed": false,
          "internalType": "bytes",
          "name": "abiArgs",
          "type": "bytes"
        }
      ],
      "name": "Deployed",
      "type": "event"
    },
    {
      "anonymous": false,
      "inputs": [
        {
          "indexed": true,
          "internalType": "address",
          "name": "oldGoverner",
          "type": "address"
        },
        {
          "indexed": true,
          "internalType": "address",
          "name": "newGoverner",
          "type": "address"
        }
      ],
      "name": "GovernanceChanged",
      "type": "event"
    },
    {
      "anonymous": false,
      "inputs": [
        {
          "indexed": true,
          "internalType": "address",
          "name": "sender",
          "type": "address"
        },
        {
          "indexed": false,
          "internalType": "uint256",
          "name": "fee",
          "type": "uint256"
        },
        {
          "indexed": false,
          "internalType": "uint256",
          "name": "treasury",
          "type": "uint256"
        }
      ],
      "name": "Received",
      "type": "event"
    },
    {
      "anonymous": false,
      "inputs": [
        {
          "indexed": true,
          "internalType": "string",
          "name": "templateName",
          "type": "string"
        },
        {
          "indexed": true,
          "internalType": "address",
          "name": "templateAddr",
          "type": "address"
        },
        {
          "indexed": true,
          "internalType": "address",
          "name": "governer",
          "type": "address"
        }
      ],
      "name": "TemplateAdded",
      "type": "event"
    },
    {
      "anonymous": false,
      "inputs": [
        {
          "indexed": true,
          "internalType": "address",
          "name": "sender",
          "type": "address"
        },
        {
          "indexed": true,
          "internalType": "string",
          "name": "templateName",
          "type": "string"
        },
        {
          "indexed": true,
          "internalType": "address",
          "name": "deployedAddr",
          "type": "address"
        },
        {
          "indexed": false,
          "internalType": "bytes",
          "name": "abiArgs",
          "type": "bytes"
        }
      ],
      "name": "TokenCloneDeployed",
      "type": "event"
    },
    {
      "anonymous": false,
      "inputs": [
        {
          "indexed": true,
          "internalType": "address",
          "name": "sender",
          "type": "address"
        },
        {
          "indexed": false,
          "internalType": "address",
          "name": "governance",
          "type": "address"
        },
        {
          "indexed": false,
          "internalType": "uint256",
          "name": "amount",
          "type": "uint256"
        },
        {
          "indexed": false,
          "internalType": "uint256",
          "name": "treasuryAfter",
          "type": "uint256"
        }
      ],
      "name": "Withdrawn",
      "type": "event"
    },
    {
      "inputs": [
        {
          "internalType": "string",
          "name": "templateName",
          "type": "string"
        },
        {
          "internalType": "address",
          "name": "templateAddr",
          "type": "address"
        }
      ],
      "name": "addTemplate",
      "outputs": [],
      "stateMutability": "nonpayable",
      "type": "function"
    },
    {
      "inputs": [
        {
          "internalType": "string",
          "name": "templateName",
          "type": "string"
        },
        {
          "internalType": "address",
          "name": "tokenAddr",
          "type": "address"
        },
        {
          "internalType": "uint256",
          "name": "sellingAmount",
          "type": "uint256"
        },
        {
          "internalType": "bytes",
          "name": "abiArgs",
          "type": "bytes"
        }
      ],
      "name": "deploy",
      "outputs": [
        {
          "internalType": "address",
          "name": "deployedAddr",
          "type": "address"
        }
      ],
      "stateMutability": "nonpayable",
      "type": "function"
    },
    {
      "inputs": [
        {
          "internalType": "string",
          "name": "templateName",
          "type": "string"
        },
        {
          "internalType": "bytes",
          "name": "abiArgs",
          "type": "bytes"
        }
      ],
      "name": "deployTokenClone",
      "outputs": [
        {
          "internalType": "address",
          "name": "deployedAddr",
          "type": "address"
        }
      ],
      "stateMutability": "nonpayable",
      "type": "function"
    },
    {
      "inputs": [],
      "name": "governance",
      "outputs": [
        {
          "internalType": "address",
          "name": "",
          "type": "address"
        }
      ],
      "stateMutability": "view",
      "type": "function"
    },
    {
      "inputs": [
        {
          "internalType": "address",
          "name": "newGoverner",
          "type": "address"
        }
      ],
      "name": "setGovernance",
      "outputs": [],
      "stateMutability": "nonpayable",
      "type": "function"
    },
    {
      "inputs": [
        {
          "internalType": "string",
          "name": "",
          "type": "string"
        }
      ],
      "name": "templates",
      "outputs": [
        {
          "internalType": "address",
          "name": "",
          "type": "address"
        }
      ],
      "stateMutability": "view",
      "type": "function"
    },
    {
      "inputs": [
        {
          "internalType": "address",
          "name": "to",
          "type": "address"
        },
        {
          "internalType": "uint256",
          "name": "amount",
          "type": "uint256"
        }
      ],
      "name": "withdraw",
      "outputs": [],
      "stateMutability": "nonpayable",
      "type": "function"
    },
    {
      "stateMutability": "payable",
      "type": "receive"
    }
  ],
  "transactionHash": "0x0d6cddbc55dcc01c620fff37fa5cbc2090c34877ddcc4c5b0bf9135538b624c5",
  "args": [
    "0xdAe503Fd260358b8f344D136160c299530006170"
  ],
  "solcInputHash": "0531834a3070261b7b2f1848a1a8435e",
  "bytecode": "0x608060405260006003553480156200001657600080fd5b50604051620022a7380380620022a783398181016040528101906200003c9190620000a3565b600160008190555080600260006101000a81548173ffffffffffffffffffffffffffffffffffffffff021916908373ffffffffffffffffffffffffffffffffffffffff160217905550506200011d565b6000815190506200009d8162000103565b92915050565b600060208284031215620000b657600080fd5b6000620000c6848285016200008c565b91505092915050565b6000620000dc82620000e3565b9050919050565b600073ffffffffffffffffffffffffffffffffffffffff82169050919050565b6200010e81620000cf565b81146200011a57600080fd5b50565b61217a806200012d6000396000f3fe6080604052600436106100745760003560e01c8063ab033ea91161004e578063ab033ea914610175578063b22beeda1461019e578063dd3fac7c146101db578063f3fef3a314610204576100cb565b80634106d2b3146100d05780634c105a871461010d5780635aa6e6751461014a576100cb565b366100cb573373ffffffffffffffffffffffffffffffffffffffff167f74cf3d18d0ddca79038197ad0dd2c7fa5005ef61a5d1ed190e8a8a437e2fcf1034476040516100c1929190611b44565b60405180910390a2005b600080fd5b3480156100dc57600080fd5b506100f760048036038101906100f2919061146e565b61022d565b6040516101049190611890565b60405180910390f35b34801561011957600080fd5b50610134600480360381019061012f91906113db565b61047d565b6040516101419190611890565b60405180910390f35b34801561015657600080fd5b5061015f6109bd565b60405161016c9190611890565b60405180910390f35b34801561018157600080fd5b5061019c600480360381019061019791906112b8565b6109e3565b005b3480156101aa57600080fd5b506101c560048036038101906101c09190611346565b610ba3565b6040516101d29190611890565b60405180910390f35b3480156101e757600080fd5b5061020260048036038101906101fd9190611387565b610bec565b005b34801561021057600080fd5b5061022b600480360381019061022691906112e1565b610e1c565b005b600080835111610272576040517f08c379a0000000000000000000000000000000000000000000000000000000008152600401610269906119c4565b60405180910390fd5b60006001846040516102849190611864565b908152602001604051809103902060009054906101000a900473ffffffffffffffffffffffffffffffffffffffff169050600073ffffffffffffffffffffffffffffffffffffffff168173ffffffffffffffffffffffffffffffffffffffff161415610325576040517f08c379a000000000000000000000000000000000000000000000000000000000815260040161031c906119a4565b60405180910390fd5b61032f81846110da565b91508173ffffffffffffffffffffffffffffffffffffffff1663439fab91846040518263ffffffff1660e01b815260040161036a9190611942565b602060405180830381600087803b15801561038457600080fd5b505af1158015610398573d6000803e3d6000fd5b505050506040513d601f19601f820116820180604052508101906103bc919061131d565b6103fb576040517f08c379a00000000000000000000000000000000000000000000000000000000081526004016103f290611a24565b60405180910390fd5b8173ffffffffffffffffffffffffffffffffffffffff16846040516104209190611864565b60405180910390203373ffffffffffffffffffffffffffffffffffffffff167f963b25a3046538cf230a89488527b2bee2eba00f25f06f8e5a4a14e57eba68808660405161046e9190611942565b60405180910390a45092915050565b6000600260005414156104c5576040517f08c379a00000000000000000000000000000000000000000000000000000000081526004016104bc90611b24565b60405180910390fd5b60026000819055506000855111610511576040517f08c379a0000000000000000000000000000000000000000000000000000000008152600401610508906119c4565b60405180910390fd5b600073ffffffffffffffffffffffffffffffffffffffff168473ffffffffffffffffffffffffffffffffffffffff161415610581576040517f08c379a000000000000000000000000000000000000000000000000000000000815260040161057890611a04565b60405180910390fd5b60006001866040516105939190611864565b908152602001604051809103902060009054906101000a900473ffffffffffffffffffffffffffffffffffffffff169050600073ffffffffffffffffffffffffffffffffffffffff168173ffffffffffffffffffffffffffffffffffffffff161415610634576040517f08c379a000000000000000000000000000000000000000000000000000000000815260040161062b906119a4565b60405180910390fd5b60008411610677576040517f08c379a000000000000000000000000000000000000000000000000000000000815260040161066e90611aa4565b60405180910390fd5b60008573ffffffffffffffffffffffffffffffffffffffff1663dd62ed3e33306040518363ffffffff1660e01b81526004016106b49291906118ab565b60206040518083038186803b1580156106cc57600080fd5b505afa1580156106e0573d6000803e3d6000fd5b505050506040513d601f19601f8201168201806040525081019061070491906114da565b905060008111610749576040517f08c379a000000000000000000000000000000000000000000000000000000000815260040161074090611a44565b60405180910390fd5b8481101561078c576040517f08c379a0000000000000000000000000000000000000000000000000000000008152600401610783906119e4565b60405180910390fd5b61079682856110da565b92508573ffffffffffffffffffffffffffffffffffffffff166323b872dd3385886040518463ffffffff1660e01b81526004016107d5939291906118d4565b602060405180830381600087803b1580156107ef57600080fd5b505af1158015610803573d6000803e3d6000fd5b505050506040513d601f19601f82011682018060405250810190610827919061131d565b610866576040517f08c379a000000000000000000000000000000000000000000000000000000000815260040161085d90611984565b60405180910390fd5b8273ffffffffffffffffffffffffffffffffffffffff1663439fab91856040518263ffffffff1660e01b815260040161089f9190611942565b602060405180830381600087803b1580156108b957600080fd5b505af11580156108cd573d6000803e3d6000fd5b505050506040513d601f19601f820116820180604052508101906108f1919061131d565b610930576040517f08c379a000000000000000000000000000000000000000000000000000000000815260040161092790611a24565b60405180910390fd5b8273ffffffffffffffffffffffffffffffffffffffff16876040516109559190611864565b60405180910390203373ffffffffffffffffffffffffffffffffffffffff167feaf3e32328dded221c43928594c0b120f1ca35c76de3ca47f2d646f15cec5585876040516109a39190611942565b60405180910390a450506001600081905550949350505050565b600260009054906101000a900473ffffffffffffffffffffffffffffffffffffffff1681565b600260009054906101000a900473ffffffffffffffffffffffffffffffffffffffff1673ffffffffffffffffffffffffffffffffffffffff163373ffffffffffffffffffffffffffffffffffffffff1614610a73576040517f08c379a0000000000000000000000000000000000000000000000000000000008152600401610a6a90611b04565b60405180910390fd5b600073ffffffffffffffffffffffffffffffffffffffff168173ffffffffffffffffffffffffffffffffffffffff161415610ae3576040517f08c379a0000000000000000000000000000000000000000000000000000000008152600401610ada90611a64565b60405180910390fd5b8073ffffffffffffffffffffffffffffffffffffffff16600260009054906101000a900473ffffffffffffffffffffffffffffffffffffffff1673ffffffffffffffffffffffffffffffffffffffff167f3aaaebeb4821d6a7e5c77ece53cff0afcc56c82add2c978dbbb7f73e84cbcfd260405160405180910390a380600260006101000a81548173ffffffffffffffffffffffffffffffffffffffff021916908373ffffffffffffffffffffffffffffffffffffffff16021790555050565b6001818051602081018201805184825260208301602085012081835280955050505050506000915054906101000a900473ffffffffffffffffffffffffffffffffffffffff1681565b600260009054906101000a900473ffffffffffffffffffffffffffffffffffffffff1673ffffffffffffffffffffffffffffffffffffffff163373ffffffffffffffffffffffffffffffffffffffff1614610c7c576040517f08c379a0000000000000000000000000000000000000000000000000000000008152600401610c7390611b04565b60405180910390fd5b600073ffffffffffffffffffffffffffffffffffffffff16600183604051610ca49190611864565b908152602001604051809103902060009054906101000a900473ffffffffffffffffffffffffffffffffffffffff1673ffffffffffffffffffffffffffffffffffffffff1614610d29576040517f08c379a0000000000000000000000000000000000000000000000000000000008152600401610d2090611a84565b60405180910390fd5b80600183604051610d3a9190611864565b908152602001604051809103902060006101000a81548173ffffffffffffffffffffffffffffffffffffffff021916908373ffffffffffffffffffffffffffffffffffffffff160217905550600260009054906101000a900473ffffffffffffffffffffffffffffffffffffffff1673ffffffffffffffffffffffffffffffffffffffff168173ffffffffffffffffffffffffffffffffffffffff1683604051610de49190611864565b60405180910390207f723df8b5c179a677dc2dc19d7904aef24eb403b08a15218a43357705f703370660405160405180910390a45050565b600260009054906101000a900473ffffffffffffffffffffffffffffffffffffffff1673ffffffffffffffffffffffffffffffffffffffff163373ffffffffffffffffffffffffffffffffffffffff1614610eac576040517f08c379a0000000000000000000000000000000000000000000000000000000008152600401610ea390611b04565b60405180910390fd5b60026000541415610ef2576040517f08c379a0000000000000000000000000000000000000000000000000000000008152600401610ee990611b24565b60405180910390fd5b6002600081905550600073ffffffffffffffffffffffffffffffffffffffff168273ffffffffffffffffffffffffffffffffffffffff161415610f6a576040517f08c379a0000000000000000000000000000000000000000000000000000000008152600401610f6190611964565b60405180910390fd5b80471015610fad576040517f08c379a0000000000000000000000000000000000000000000000000000000008152600401610fa490611ae4565b60405180910390fd5b60008273ffffffffffffffffffffffffffffffffffffffff1682604051610fd39061187b565b60006040518083038185875af1925050503d8060008114611010576040519150601f19603f3d011682016040523d82523d6000602084013e611015565b606091505b5050905080611059576040517f08c379a000000000000000000000000000000000000000000000000000000000815260040161105090611ac4565b60405180910390fd5b3373ffffffffffffffffffffffffffffffffffffffff167f91fb9d98b786c57d74c099ccd2beca1739e9f6a81fb49001ca465c4b7591bbe2600260009054906101000a900473ffffffffffffffffffffffffffffffffffffffff1684476040516110c59392919061190b565b60405180910390a25060016000819055505050565b6000808360601b90506001600360008282546110f69190611c42565b925050819055506000848433600354604051602001611118949392919061181a565b6040516020818303038152906040528051906020012090506040517f3d602d80600a3d3981f3363d3d373d3d3d363d7300000000000000000000000081528260148201527f5af43d82803e903d91602b57fd5bf300000000000000000000000000000000006028820152816037826000f5935050505092915050565b60006111a76111a284611b92565b611b6d565b9050828152602081018484840111156111bf57600080fd5b6111ca848285611ce0565b509392505050565b60006111e56111e084611bc3565b611b6d565b9050828152602081018484840111156111fd57600080fd5b611208848285611ce0565b509392505050565b60008135905061121f816120ff565b92915050565b60008151905061123481612116565b92915050565b600082601f83011261124b57600080fd5b813561125b848260208601611194565b91505092915050565b600082601f83011261127557600080fd5b81356112858482602086016111d2565b91505092915050565b60008135905061129d8161212d565b92915050565b6000815190506112b28161212d565b92915050565b6000602082840312156112ca57600080fd5b60006112d884828501611210565b91505092915050565b600080604083850312156112f457600080fd5b600061130285828601611210565b92505060206113138582860161128e565b9150509250929050565b60006020828403121561132f57600080fd5b600061133d84828501611225565b91505092915050565b60006020828403121561135857600080fd5b600082013567ffffffffffffffff81111561137257600080fd5b61137e84828501611264565b91505092915050565b6000806040838503121561139a57600080fd5b600083013567ffffffffffffffff8111156113b457600080fd5b6113c085828601611264565b92505060206113d185828601611210565b9150509250929050565b600080600080608085870312156113f157600080fd5b600085013567ffffffffffffffff81111561140b57600080fd5b61141787828801611264565b945050602061142887828801611210565b93505060406114398782880161128e565b925050606085013567ffffffffffffffff81111561145657600080fd5b6114628782880161123a565b91505092959194509250565b6000806040838503121561148157600080fd5b600083013567ffffffffffffffff81111561149b57600080fd5b6114a785828601611264565b925050602083013567ffffffffffffffff8111156114c457600080fd5b6114d08582860161123a565b9150509250929050565b6000602082840312156114ec57600080fd5b60006114fa848285016112a3565b91505092915050565b61150c81611c98565b82525050565b61152361151e82611c98565b611d53565b82525050565b600061153482611bf4565b61153e8185611c0a565b935061154e818560208601611cef565b61155781611ddf565b840191505092915050565b600061156d82611bf4565b6115778185611c1b565b9350611587818560208601611cef565b80840191505092915050565b600061159e82611bff565b6115a88185611c37565b93506115b8818560208601611cef565b80840191505092915050565b60006115d1601683611c26565b91506115dc82611dfd565b602082019050919050565b60006115f4601483611c26565b91506115ff82611e26565b602082019050919050565b6000611617601d83611c26565b915061162282611e4f565b602082019050919050565b600061163a600d83611c26565b915061164582611e78565b602082019050919050565b600061165d601883611c26565b915061166882611ea1565b602082019050919050565b6000611680601983611c26565b915061168b82611eca565b602082019050919050565b60006116a3602983611c26565b91506116ae82611ef3565b604082019050919050565b60006116c6602583611c26565b91506116d182611f42565b604082019050919050565b60006116e9600083611c1b565b91506116f482611f91565b600082019050919050565b600061170c601783611c26565b915061171782611f94565b602082019050919050565b600061172f602483611c26565b915061173a82611fbd565b604082019050919050565b6000611752603183611c26565b915061175d8261200c565b604082019050919050565b6000611775600f83611c26565b91506117808261205b565b602082019050919050565b6000611798601183611c26565b91506117a382612084565b602082019050919050565b60006117bb601883611c26565b91506117c6826120ad565b602082019050919050565b60006117de601f83611c26565b91506117e9826120d6565b602082019050919050565b6117fd81611cd6565b82525050565b61181461180f82611cd6565b611d77565b82525050565b60006118268287611512565b6014820191506118368286611562565b91506118428285611512565b6014820191506118528284611803565b60208201915081905095945050505050565b60006118708284611593565b915081905092915050565b6000611886826116dc565b9150819050919050565b60006020820190506118a56000830184611503565b92915050565b60006040820190506118c06000830185611503565b6118cd6020830184611503565b9392505050565b60006060820190506118e96000830186611503565b6118f66020830185611503565b61190360408301846117f4565b949350505050565b60006060820190506119206000830186611503565b61192d60208301856117f4565b61193a60408301846117f4565b949350505050565b6000602082019050818103600083015261195c8184611529565b905092915050565b6000602082019050818103600083015261197d816115c4565b9050919050565b6000602082019050818103600083015261199d816115e7565b9050919050565b600060208201905081810360008301526119bd8161160a565b9050919050565b600060208201905081810360008301526119dd8161162d565b9050919050565b600060208201905081810360008301526119fd81611650565b9050919050565b60006020820190508181036000830152611a1d81611673565b9050919050565b60006020820190508181036000830152611a3d81611696565b9050919050565b60006020820190508181036000830152611a5d816116b9565b9050919050565b60006020820190508181036000830152611a7d816116ff565b9050919050565b60006020820190508181036000830152611a9d81611722565b9050919050565b60006020820190508181036000830152611abd81611745565b9050919050565b60006020820190508181036000830152611add81611768565b9050919050565b60006020820190508181036000830152611afd8161178b565b9050919050565b60006020820190508181036000830152611b1d816117ae565b9050919050565b60006020820190508181036000830152611b3d816117d1565b9050919050565b6000604082019050611b5960008301856117f4565b611b6660208301846117f4565b9392505050565b6000611b77611b88565b9050611b838282611d22565b919050565b6000604051905090565b600067ffffffffffffffff821115611bad57611bac611db0565b5b611bb682611ddf565b9050602081019050919050565b600067ffffffffffffffff821115611bde57611bdd611db0565b5b611be782611ddf565b9050602081019050919050565b600081519050919050565b600081519050919050565b600082825260208201905092915050565b600081905092915050565b600082825260208201905092915050565b600081905092915050565b6000611c4d82611cd6565b9150611c5883611cd6565b9250827fffffffffffffffffffffffffffffffffffffffffffffffffffffffffffffffff03821115611c8d57611c8c611d81565b5b828201905092915050565b6000611ca382611cb6565b9050919050565b60008115159050919050565b600073ffffffffffffffffffffffffffffffffffffffff82169050919050565b6000819050919050565b82818337600083830152505050565b60005b83811015611d0d578082015181840152602081019050611cf2565b83811115611d1c576000848401525b50505050565b611d2b82611ddf565b810181811067ffffffffffffffff82111715611d4a57611d49611db0565b5b80604052505050565b6000611d5e82611d65565b9050919050565b6000611d7082611df0565b9050919050565b6000819050919050565b7f4e487b7100000000000000000000000000000000000000000000000000000000600052601160045260246000fd5b7f4e487b7100000000000000000000000000000000000000000000000000000000600052604160045260246000fd5b6000601f19601f8301169050919050565b60008160601b9050919050565b7f446f6e2774206469736361726420747265617572792100000000000000000000600082015250565b7f5472616e7366657246726f6d206661696c65642e000000000000000000000000600082015250565b7f4e6f20737563682074656d706c61746520696e20746865206c6973742e000000600082015250565b7f456d70747920737472696e672e00000000000000000000000000000000000000600082015250565b7f616c6c6f77616e6365206973206e6f7420656e6f7567682e0000000000000000600082015250565b7f476f2077697468206e6f6e206e756c6c20616464726573732e00000000000000600082015250565b7f4661696c656420746f20696e697469616c697a652074686520636c6f6e65642060008201527f636f6e74726163742e0000000000000000000000000000000000000000000000602082015250565b7f596f75206861766520746f20617070726f7665204552432d323020746f20646560008201527f706c6f792e000000000000000000000000000000000000000000000000000000602082015250565b50565b7f676f7665726e65722063616e6e6f74206265206e756c6c000000000000000000600082015250565b7f546869732074656d706c617465206e616d6520697320616c726561647920746160008201527f6b656e2e00000000000000000000000000000000000000000000000000000000602082015250565b7f486176696e6720616e206576656e7420776974686f757420746f6b656e73206160008201527f7265206e6f74207065726d69747465642e000000000000000000000000000000602082015250565b7f7472616e73666572206661696c65640000000000000000000000000000000000600082015250565b7f416d6f756e7420697320746f6f20626967000000000000000000000000000000600082015250565b7f596f75277265206e6f742074686520676f7665726e65722e0000000000000000600082015250565b7f5265656e7472616e637947756172643a207265656e7472616e742063616c6c00600082015250565b61210881611c98565b811461211357600080fd5b50565b61211f81611caa565b811461212a57600080fd5b50565b61213681611cd6565b811461214157600080fd5b5056fea264697066735822122001125cfae224f240986a4826142ca158997e2d08f8c0ab00c0475f30f7f28faa64736f6c63430008030033",
  "devdoc": {
    "kind": "dev",
    "methods": {},
    "version": 1
  },
  "userdoc": {
    "kind": "user",
    "methods": {},
    "version": 1
  },
  "storageLayout": {
    "storage": [
      {
        "astId": 10,
        "contract": "contracts/Factory.sol:Factory",
        "label": "_status",
        "offset": 0,
        "slot": "0",
        "type": "t_uint256"
      },
      {
        "astId": 684,
        "contract": "contracts/Factory.sol:Factory",
        "label": "templates",
        "offset": 0,
        "slot": "1",
        "type": "t_mapping(t_string_memory_ptr,t_address)"
      },
      {
        "astId": 686,
        "contract": "contracts/Factory.sol:Factory",
        "label": "governance",
        "offset": 0,
        "slot": "2",
        "type": "t_address"
      },
      {
        "astId": 689,
        "contract": "contracts/Factory.sol:Factory",
        "label": "nonce",
        "offset": 0,
        "slot": "3",
        "type": "t_uint256"
      }
    ],
    "types": {
      "t_address": {
        "encoding": "inplace",
        "label": "address",
        "numberOfBytes": "20"
      },
      "t_mapping(t_string_memory_ptr,t_address)": {
        "encoding": "mapping",
        "key": "t_string_memory_ptr",
        "label": "mapping(string => address)",
        "numberOfBytes": "32",
        "value": "t_address"
      },
      "t_string_memory_ptr": {
        "encoding": "bytes",
        "label": "string",
        "numberOfBytes": "32"
      },
      "t_uint256": {
        "encoding": "inplace",
        "label": "uint256",
        "numberOfBytes": "32"
      }
    }
  }
}